{
  "contractName": "ProxyWallet",
  "abi": [
    {
      "constant": true,
      "inputs": [
        {
          "name": "",
          "type": "address"
        }
      ],
      "name": "isAdministrator",
      "outputs": [
        {
          "name": "",
          "type": "bool"
        }
      ],
      "payable": false,
      "stateMutability": "view",
      "type": "function"
    },
    {
      "constant": true,
      "inputs": [],
      "name": "gasCost",
      "outputs": [
        {
          "name": "",
          "type": "uint256"
        }
      ],
      "payable": false,
      "stateMutability": "view",
      "type": "function"
    },
    {
      "constant": true,
      "inputs": [],
      "name": "remainingGasEnd",
      "outputs": [
        {
          "name": "",
          "type": "uint256"
        }
      ],
      "payable": false,
      "stateMutability": "view",
      "type": "function"
    },
    {
      "constant": true,
      "inputs": [],
      "name": "username",
      "outputs": [
        {
          "name": "",
          "type": "string"
        }
      ],
      "payable": false,
      "stateMutability": "view",
      "type": "function"
    },
    {
      "constant": true,
      "inputs": [],
      "name": "owner",
      "outputs": [
        {
          "name": "",
          "type": "address"
        }
      ],
      "payable": false,
      "stateMutability": "view",
      "type": "function"
    },
    {
      "constant": true,
      "inputs": [],
      "name": "userPublicKey",
      "outputs": [
        {
          "name": "",
          "type": "string"
        }
      ],
      "payable": false,
      "stateMutability": "view",
      "type": "function"
    },
    {
      "constant": true,
      "inputs": [],
      "name": "remainingGasStart",
      "outputs": [
        {
          "name": "",
          "type": "uint256"
        }
      ],
      "payable": false,
      "stateMutability": "view",
      "type": "function"
    },
    {
      "constant": true,
      "inputs": [
        {
          "name": "",
          "type": "uint256"
        }
      ],
      "name": "administrators",
      "outputs": [
        {
          "name": "",
          "type": "address"
        }
      ],
      "payable": false,
      "stateMutability": "view",
      "type": "function"
    },
    {
      "constant": true,
      "inputs": [],
      "name": "usedGas",
      "outputs": [
        {
          "name": "",
          "type": "uint256"
        }
      ],
      "payable": false,
      "stateMutability": "view",
      "type": "function"
    },
    {
      "inputs": [
        {
          "name": "_administrators",
          "type": "address[]"
        },
        {
          "name": "_username",
          "type": "string"
        },
        {
          "name": "_publicKey",
          "type": "string"
        }
      ],
      "payable": false,
      "stateMutability": "nonpayable",
      "type": "constructor"
    },
    {
      "anonymous": false,
      "inputs": [
        {
          "indexed": true,
          "name": "from",
          "type": "address"
        },
        {
          "indexed": false,
          "name": "username",
          "type": "string"
        }
      ],
      "name": "UsernameSet",
      "type": "event"
    },
    {
      "anonymous": false,
      "inputs": [
        {
          "indexed": true,
          "name": "from",
          "type": "address"
        },
        {
          "indexed": false,
          "name": "publicKey",
          "type": "string"
        }
      ],
      "name": "PublicKeySet",
      "type": "event"
    },
    {
      "anonymous": false,
      "inputs": [
        {
          "indexed": true,
          "name": "admin",
          "type": "address"
        }
      ],
      "name": "AdministratorAdded",
      "type": "event"
    },
    {
      "anonymous": false,
      "inputs": [
        {
          "indexed": true,
          "name": "deviceId",
          "type": "address"
        },
        {
          "indexed": false,
          "name": "dataId",
          "type": "string"
        },
        {
          "indexed": false,
          "name": "state",
          "type": "uint8"
        }
      ],
      "name": "SessionEvent",
      "type": "event"
    },
    {
      "anonymous": false,
      "inputs": [
        {
          "indexed": true,
          "name": "from",
          "type": "address"
        },
        {
          "indexed": true,
          "name": "to",
          "type": "address"
        },
        {
          "indexed": false,
          "name": "value",
          "type": "uint256"
        }
      ],
      "name": "Transfer",
      "type": "event"
    },
    {
      "anonymous": false,
      "inputs": [
        {
          "indexed": false,
          "name": "messageHash",
          "type": "bytes32"
        },
        {
          "indexed": false,
          "name": "sig",
          "type": "bytes"
        },
        {
          "indexed": false,
          "name": "recoveredAddress",
          "type": "address"
        }
      ],
      "name": "RecoveredAddress",
      "type": "event"
    },
    {
      "anonymous": false,
      "inputs": [
        {
          "indexed": false,
          "name": "messageHash",
          "type": "bytes32"
        },
        {
          "indexed": false,
          "name": "signedMessage",
          "type": "bytes32"
        }
      ],
      "name": "SignedMessage",
      "type": "event"
    },
    {
      "anonymous": false,
      "inputs": [
        {
          "indexed": true,
          "name": "from",
          "type": "address"
        },
        {
          "indexed": false,
          "name": "to",
          "type": "address"
        },
        {
          "indexed": false,
          "name": "gasCost",
          "type": "uint256"
        }
      ],
      "name": "GasRefundEvent",
      "type": "event"
    },
    {
      "anonymous": false,
      "inputs": [
        {
          "indexed": false,
          "name": "contractOwner",
          "type": "address"
        }
      ],
      "name": "ContractDestroyed",
      "type": "event"
    },
    {
      "constant": false,
      "inputs": [
        {
          "name": "_username",
          "type": "string"
        }
      ],
      "name": "setNewUsername",
      "outputs": [],
      "payable": false,
      "stateMutability": "nonpayable",
      "type": "function"
    },
    {
      "constant": false,
      "inputs": [
        {
          "name": "_publicKey",
          "type": "string"
        }
      ],
      "name": "setNewUserPublicKey",
      "outputs": [],
      "payable": false,
      "stateMutability": "nonpayable",
      "type": "function"
    },
    {
      "constant": false,
      "inputs": [
        {
          "name": "_dataId",
          "type": "string"
        },
        {
          "name": "_deviceId",
          "type": "address"
        },
        {
          "name": "_first",
          "type": "string"
        },
        {
          "name": "_second",
          "type": "string"
        },
        {
          "name": "_hashed",
          "type": "bytes32"
        },
        {
          "name": "_subject",
          "type": "string"
        },
        {
          "name": "r",
          "type": "bytes32"
        },
        {
          "name": "s",
          "type": "bytes32"
        },
        {
          "name": "v",
          "type": "uint8"
        },
        {
          "name": "_startTime",
          "type": "uint256"
        },
        {
          "name": "_duration",
          "type": "uint256"
        }
      ],
      "name": "startSession",
      "outputs": [],
      "payable": false,
      "stateMutability": "nonpayable",
      "type": "function"
    },
    {
      "constant": false,
      "inputs": [
        {
          "name": "_dataId",
          "type": "string"
        }
      ],
      "name": "closeSession",
      "outputs": [],
      "payable": false,
      "stateMutability": "nonpayable",
      "type": "function"
    },
    {
      "constant": false,
      "inputs": [
        {
          "name": "_dataId",
          "type": "string"
        }
      ],
      "name": "checkSessionState",
      "outputs": [
        {
          "name": "",
          "type": "uint8"
        }
      ],
      "payable": false,
      "stateMutability": "nonpayable",
      "type": "function"
    },
    {
      "constant": false,
      "inputs": [
        {
          "name": "_admin",
          "type": "address"
        }
      ],
      "name": "addAdministrator",
      "outputs": [],
      "payable": false,
      "stateMutability": "nonpayable",
      "type": "function"
    },
    {
      "constant": false,
      "inputs": [
        {
          "name": "_id",
          "type": "uint256"
        }
      ],
      "name": "getAdministrator",
      "outputs": [
        {
          "name": "",
          "type": "address"
        }
      ],
      "payable": false,
      "stateMutability": "nonpayable",
      "type": "function"
    },
    {
      "constant": false,
      "inputs": [],
      "name": "getAllAdministrators",
      "outputs": [
        {
          "name": "",
          "type": "address[]"
        }
      ],
      "payable": false,
      "stateMutability": "nonpayable",
      "type": "function"
    },
    {
      "constant": true,
      "inputs": [],
      "name": "getAdministratorsCount",
      "outputs": [
        {
          "name": "",
          "type": "uint256"
        }
      ],
      "payable": false,
      "stateMutability": "view",
      "type": "function"
    },
    {
      "constant": false,
      "inputs": [
        {
          "name": "_dataId",
          "type": "string"
        }
      ],
      "name": "getPublicKeyFromSession",
      "outputs": [
        {
          "name": "",
          "type": "string"
        },
        {
          "name": "",
          "type": "string"
        }
      ],
      "payable": false,
      "stateMutability": "nonpayable",
      "type": "function"
    },
    {
      "constant": false,
      "inputs": [],
      "name": "getPublicKey",
      "outputs": [
        {
          "name": "",
          "type": "string"
        }
      ],
      "payable": false,
      "stateMutability": "nonpayable",
      "type": "function"
    },
    {
      "constant": false,
      "inputs": [],
      "name": "getUsername",
      "outputs": [
        {
          "name": "",
          "type": "string"
        }
      ],
      "payable": false,
      "stateMutability": "nonpayable",
      "type": "function"
    },
    {
      "constant": false,
      "inputs": [
        {
          "name": "_dataId",
          "type": "string"
        }
      ],
      "name": "getSignature",
      "outputs": [
        {
          "name": "",
          "type": "bytes32"
        },
        {
          "name": "",
          "type": "bytes32"
        },
        {
          "name": "",
          "type": "uint8"
        }
      ],
      "payable": false,
      "stateMutability": "nonpayable",
      "type": "function"
    },
    {
      "constant": false,
      "inputs": [
        {
          "name": "_dataId",
          "type": "string"
        }
      ],
      "name": "getOtherSessionData",
      "outputs": [
        {
          "name": "",
          "type": "address"
        },
        {
          "name": "",
          "type": "string"
        },
        {
          "name": "",
          "type": "bytes32"
        },
        {
          "name": "",
          "type": "uint256"
        },
        {
          "name": "",
          "type": "uint256"
        },
        {
          "name": "",
          "type": "uint8"
        },
        {
          "name": "",
          "type": "uint8"
        }
      ],
      "payable": false,
      "stateMutability": "nonpayable",
      "type": "function"
    },
    {
      "constant": true,
      "inputs": [],
      "name": "getCurrentSpentGas",
      "outputs": [
        {
          "name": "",
          "type": "uint256"
        }
      ],
      "payable": false,
      "stateMutability": "view",
      "type": "function"
    },
    {
      "constant": false,
      "inputs": [
        {
          "name": "_messageHash",
          "type": "bytes32"
        }
      ],
      "name": "signMessage",
      "outputs": [
        {
          "name": "",
          "type": "bytes32"
        }
      ],
      "payable": false,
      "stateMutability": "nonpayable",
      "type": "function"
    },
    {
      "constant": false,
      "inputs": [
        {
          "name": "_messageHash",
          "type": "bytes32"
        },
        {
          "name": "_sig",
          "type": "bytes"
        }
      ],
      "name": "recoverAddress",
      "outputs": [
        {
          "name": "",
          "type": "address"
        }
      ],
      "payable": false,
      "stateMutability": "nonpayable",
      "type": "function"
    },
    {
      "constant": false,
      "inputs": [
        {
          "name": "_address",
          "type": "address"
        }
      ],
      "name": "getBalance",
      "outputs": [
        {
          "name": "",
          "type": "uint256"
        }
      ],
      "payable": false,
      "stateMutability": "nonpayable",
      "type": "function"
    },
    {
      "constant": false,
      "inputs": [
        {
          "name": "_address",
          "type": "address"
        },
        {
          "name": "_balance",
          "type": "uint256"
        }
      ],
      "name": "checkIfAccountHasExactBalance",
      "outputs": [
        {
          "name": "",
          "type": "bool"
        }
      ],
      "payable": false,
      "stateMutability": "nonpayable",
      "type": "function"
    },
    {
      "constant": false,
      "inputs": [
        {
          "name": "_to",
          "type": "address"
        },
        {
          "name": "_value",
          "type": "uint256"
        }
      ],
      "name": "executeOneTimeTransaction",
      "outputs": [
        {
          "name": "",
          "type": "bool"
        }
      ],
      "payable": false,
      "stateMutability": "nonpayable",
      "type": "function"
    },
    {
      "constant": false,
      "inputs": [
        {
          "name": "_to",
          "type": "address"
        },
        {
          "name": "_value",
          "type": "uint256"
        }
      ],
      "name": "transfer",
      "outputs": [
        {
          "name": "",
          "type": "bool"
        }
      ],
      "payable": true,
      "stateMutability": "payable",
      "type": "function"
    },
    {
      "constant": false,
      "inputs": [
        {
          "name": "_admin",
          "type": "address"
        }
      ],
      "name": "refundGasCosts",
      "outputs": [
        {
          "name": "",
          "type": "bool"
        }
      ],
      "payable": false,
      "stateMutability": "nonpayable",
      "type": "function"
    },
    {
      "constant": false,
      "inputs": [],
      "name": "kill",
      "outputs": [],
      "payable": false,
      "stateMutability": "nonpayable",
      "type": "function"
    }
  ],
  "bytecode": "0x60806040523480156200001157600080fd5b506040516200448638038062004486833981018060405281019080805182019291906020018051820192919060200180518201929190505050600083600081511115156200005e57600080fd5b606060028054600181600116156101000203166002900480601f016020809104026020016040519081016040528092919081815260200182805460018160011615610100020316600290048015620000fa5780601f10620000ce57610100808354040283529160200191620000fa565b820191906000526020600020905b815481529060010190602001808311620000dc57829003601f168201915b50505050509050600081511415156200011257600080fd5b336000806101000a81548173ffffffffffffffffffffffffffffffffffffffff021916908373ffffffffffffffffffffffffffffffffffffffff1602179055503373ffffffffffffffffffffffffffffffffffffffff1631600181905550600092505b8551831015620001bf57620001b186848151811015156200019257fe5b90602001906020020151620001ff640100000000026401000000009004565b828060010193505062000175565b620001d985620003fa640100000000026401000000009004565b620001f38462000526640100000000026401000000009004565b50505050505062000701565b6000809054906101000a900473ffffffffffffffffffffffffffffffffffffffff1673ffffffffffffffffffffffffffffffffffffffff163373ffffffffffffffffffffffffffffffffffffffff161415156200025b57600080fd5b5a600781905550600660008273ffffffffffffffffffffffffffffffffffffffff1673ffffffffffffffffffffffffffffffffffffffff16815260200190815260200160002060009054906101000a900460ff16151515620002bc57600080fd5b60058190806001815401808255809150509060018203906000526020600020016000909192909190916101000a81548173ffffffffffffffffffffffffffffffffffffffff021916908373ffffffffffffffffffffffffffffffffffffffff160217905550506001600660008373ffffffffffffffffffffffffffffffffffffffff1673ffffffffffffffffffffffffffffffffffffffff16815260200190815260200160002060006101000a81548160ff0219169083151502179055508073ffffffffffffffffffffffffffffffffffffffff167fe78a1675a4b4d68d04fc70b93f9c37c5288e084d9b02d718103f7ad5e292b68860405160405180910390a25a600881905550600854600754036009819055506177ec6009600082825401925050819055503a60095402600a6000828254019250508190555050565b806060819050600081511115156200041157600080fd5b5a60078190555082600290805190602001906200043092919062000652565b503373ffffffffffffffffffffffffffffffffffffffff167f74d8e560d2e870c35b35dc882df2a5c96e2bf1cdb5ef6dd2f9cb433c8d048853846040518080602001828103825283818151815260200191508051906020019080838360005b83811015620004ac5780820151818401526020810190506200048f565b50505050905090810190601f168015620004da5780820380516001836020036101000a031916815260200191505b509250505060405180910390a25a600881905550600854600754036009819055506177ec6009600082825401925050819055503a60095402600a60008282540192505081905550505050565b806060819050600081511115156200053d57600080fd5b5a60078190555082600390805190602001906200055c92919062000652565b503373ffffffffffffffffffffffffffffffffffffffff167f04e4e591d22d14223bc0c2a948352d1a93ba82695e446ca5f8b238cfa7d69304846040518080602001828103825283818151815260200191508051906020019080838360005b83811015620005d8578082015181840152602081019050620005bb565b50505050905090810190601f168015620006065780820380516001836020036101000a031916815260200191505b509250505060405180910390a25a600881905550600854600754036009819055506177ec6009600082825401925050819055503a60095402600a60008282540192505081905550505050565b828054600181600116156101000203166002900490600052602060002090601f016020900481019282601f106200069557805160ff1916838001178555620006c6565b82800160010185558215620006c6579182015b82811115620006c5578251825591602001919060010190620006a8565b5b509050620006d59190620006d9565b5090565b620006fe91905b80821115620006fa576000816000905550600101620006e0565b5090565b90565b613d7580620007116000396000f300608060405260043610610196576000357c0100000000000000000000000000000000000000000000000000000000900463ffffffff1680630a2eb3011461019b57806312dd5b45146101f657806313a2b17d146102815780631af701b0146103cf5780631d5e3fe5146104345780632c66a5821461045f5780632e3344521461048a57806330dda98f1461051a57806341c0e1b5146105835780635acdfed21461059a5780635e9592871461074057806361b28643146107e157806361fac54d1461093d578063681f3e6d146109cd5780636ddd5db614610a5d57806379b63ee914610ac95780638440c11614610b325780638da5cb5b14610b9757806396b419de14610bee5780639f2ce30f14610c57578063a08519b514610ce7578063a9059cbb14610d34578063c3d04d7214610d8c578063c655d7aa14610db7578063c999117614610e6e578063ca25830a14610eb1578063cf5cca4314610edc578063d23f3ca014610f07578063d89d151014610f74578063e380376d14610fe1578063ef4747071461103c578063f8b2cb4f14611067575b600080fd5b3480156101a757600080fd5b506101dc600480360381019080803573ffffffffffffffffffffffffffffffffffffffff1690602001909291905050506110be565b604051808215151515815260200191505060405180910390f35b34801561020257600080fd5b5061025d600480360381019080803590602001908201803590602001908080601f01602080910402602001604051908101604052809392919081815260200183838082843782019150505050505091929192905050506110de565b6040518082600181111561026d57fe5b60ff16815260200191505060405180910390f35b34801561028d57600080fd5b506102e8600480360381019080803590602001908201803590602001908080601f01602080910402602001604051908101604052809392919081815260200183838082843782019150505050505091929192905050506114b1565b604051808060200180602001838103835285818151815260200191508051906020019080838360005b8381101561032c578082015181840152602081019050610311565b50505050905090810190601f1680156103595780820380516001836020036101000a031916815260200191505b50838103825284818151815260200191508051906020019080838360005b83811015610392578082015181840152602081019050610377565b50505050905090810190601f1680156103bf5780820380516001836020036101000a031916815260200191505b5094505050505060405180910390f35b3480156103db57600080fd5b5061041a600480360381019080803573ffffffffffffffffffffffffffffffffffffffff16906020019092919080359060200190929190505050611712565b604051808215151515815260200191505060405180910390f35b34801561044057600080fd5b5061044961174c565b6040518082815260200191505060405180910390f35b34801561046b57600080fd5b50610474611752565b6040518082815260200191505060405180910390f35b34801561049657600080fd5b5061049f611758565b6040518080602001828103825283818151815260200191508051906020019080838360005b838110156104df5780820151818401526020810190506104c4565b50505050905090810190601f16801561050c5780820380516001836020036101000a031916815260200191505b509250505060405180910390f35b34801561052657600080fd5b50610581600480360381019080803590602001908201803590602001908080601f01602080910402602001604051908101604052809392919081815260200183838082843782019150505050505091929192905050506118ea565b005b34801561058f57600080fd5b50610598611a10565b005b3480156105a657600080fd5b5061073e600480360381019080803590602001908201803590602001908080601f0160208091040260200160405190810160405280939291908181526020018383808284378201915050505050509192919290803573ffffffffffffffffffffffffffffffffffffffff169060200190929190803590602001908201803590602001908080601f0160208091040260200160405190810160405280939291908181526020018383808284378201915050505050509192919290803590602001908201803590602001908080601f01602080910402602001604051908101604052809392919081815260200183838082843782019150505050505091929192908035600019169060200190929190803590602001908201803590602001908080601f016020809104026020016040519081016040528093929190818152602001838380828437820191505050505050919291929080356000191690602001909291908035600019169060200190929190803560ff1690602001909291908035906020019092919080359060200190929190505050611ae7565b005b34801561074c57600080fd5b506107a7600480360381019080803590602001908201803590602001908080601f0160208091040260200160405190810160405280939291908181526020018383808284378201915050505050509192919290505050611f46565b60405180846000191660001916815260200183600019166000191681526020018260ff1660ff168152602001935050505060405180910390f35b3480156107ed57600080fd5b50610848600480360381019080803590602001908201803590602001908080601f01602080910402602001604051908101604052809392919081815260200183838082843782019150505050505091929192905050506121a3565b604051808873ffffffffffffffffffffffffffffffffffffffff1673ffffffffffffffffffffffffffffffffffffffff1681526020018060200187600019166000191681526020018681526020018581526020018460018111156108a857fe5b60ff1681526020018360018111156108bc57fe5b60ff168152602001828103825288818151815260200191508051906020019080838360005b838110156108fc5780820151818401526020810190506108e1565b50505050905090810190601f1680156109295780820380516001836020036101000a031916815260200191505b509850505050505050505060405180910390f35b34801561094957600080fd5b5061095261269d565b6040518080602001828103825283818151815260200191508051906020019080838360005b83811015610992578082015181840152602081019050610977565b50505050905090810190601f1680156109bf5780820380516001836020036101000a031916815260200191505b509250505060405180910390f35b3480156109d957600080fd5b506109e261273b565b6040518080602001828103825283818151815260200191508051906020019080838360005b83811015610a22578082015181840152602081019050610a07565b50505050905090810190601f168015610a4f5780820380516001836020036101000a031916815260200191505b509250505060405180910390f35b348015610a6957600080fd5b50610a726128cd565b6040518080602001828103825283818151815260200191508051906020019060200280838360005b83811015610ab5578082015181840152602081019050610a9a565b505050509050019250505060405180910390f35b348015610ad557600080fd5b50610b30600480360381019080803590602001908201803590602001908080601f016020809104026020016040519081016040528093929190818152602001838380828437820191505050505050919291929050505061299c565b005b348015610b3e57600080fd5b50610b7d600480360381019080803573ffffffffffffffffffffffffffffffffffffffff16906020019092919080359060200190929190505050612ac2565b604051808215151515815260200191505060405180910390f35b348015610ba357600080fd5b50610bac612b18565b604051808273ffffffffffffffffffffffffffffffffffffffff1673ffffffffffffffffffffffffffffffffffffffff16815260200191505060405180910390f35b348015610bfa57600080fd5b50610c55600480360381019080803590602001908201803590602001908080601f0160208091040260200160405190810160405280939291908181526020018383808284378201915050505050509192919290505050612b3d565b005b348015610c6357600080fd5b50610c6c612f9b565b6040518080602001828103825283818151815260200191508051906020019080838360005b83811015610cac578082015181840152602081019050610c91565b50505050905090810190601f168015610cd95780820380516001836020036101000a031916815260200191505b509250505060405180910390f35b348015610cf357600080fd5b50610d166004803603810190808035600019169060200190929190505050613039565b60405180826000191660001916815260200191505060405180910390f35b610d72600480360381019080803573ffffffffffffffffffffffffffffffffffffffff1690602001909291908035906020019092919050505061318b565b604051808215151515815260200191505060405180910390f35b348015610d9857600080fd5b50610da1613376565b6040518082815260200191505060405180910390f35b348015610dc357600080fd5b50610e2c6004803603810190808035600019169060200190929190803590602001908201803590602001908080601f0160208091040260200160405190810160405280939291908181526020018383808284378201915050505050509192919290505050613380565b604051808273ffffffffffffffffffffffffffffffffffffffff1673ffffffffffffffffffffffffffffffffffffffff16815260200191505060405180910390f35b348015610e7a57600080fd5b50610eaf600480360381019080803573ffffffffffffffffffffffffffffffffffffffff1690602001909291905050506135d1565b005b348015610ebd57600080fd5b50610ec66137ca565b6040518082815260200191505060405180910390f35b348015610ee857600080fd5b50610ef16137d0565b6040518082815260200191505060405180910390f35b348015610f1357600080fd5b50610f32600480360381019080803590602001909291905050506137dd565b604051808273ffffffffffffffffffffffffffffffffffffffff1673ffffffffffffffffffffffffffffffffffffffff16815260200191505060405180910390f35b348015610f8057600080fd5b50610f9f6004803603810190808035906020019092919050505061398a565b604051808273ffffffffffffffffffffffffffffffffffffffff1673ffffffffffffffffffffffffffffffffffffffff16815260200191505060405180910390f35b348015610fed57600080fd5b50611022600480360381019080803573ffffffffffffffffffffffffffffffffffffffff1690602001909291905050506139c8565b604051808215151515815260200191505060405180910390f35b34801561104857600080fd5b50611051613b74565b6040518082815260200191505060405180910390f35b34801561107357600080fd5b506110a8600480360381019080803573ffffffffffffffffffffffffffffffffffffffff169060200190929190505050613b7a565b6040518082815260200191505060405180910390f35b60066020528060005260406000206000915054906101000a900460ff1681565b60005a600781905550600060018111156110f457fe5b6004836040518082805190602001908083835b60208310151561112c5780518252602082019150602081019050602083039250611107565b6001836020036101000a0380198251168184511680821785525050505050509050019150509081526020016040518091039020600a0160009054906101000a900460ff16600181111561117b57fe5b1480611217575060018081111561118e57fe5b6004836040518082805190602001908083835b6020831015156111c657805182526020820191506020810190506020830392506111a1565b6001836020036101000a0380198251168184511680821785525050505050509050019150509081526020016040518091039020600a0160009054906101000a900460ff16600181111561121557fe5b145b151561122257600080fd5b6004826040518082805190602001908083835b60208310151561125a5780518252602082019150602081019050602083039250611235565b6001836020036101000a038019825116818451168082178552505050505050905001915050908152602001604051809103902060000160009054906101000a900473ffffffffffffffffffffffffffffffffffffffff1673ffffffffffffffffffffffffffffffffffffffff167f2617c2026b9eea779bd5ffc878b7346c8e5b7d95b7c7783556b5b4b4787864e8836004856040518082805190602001908083835b60208310151561132157805182526020820191506020810190506020830392506112fc565b6001836020036101000a0380198251168184511680821785525050505050509050019150509081526020016040518091039020600a0160009054906101000a900460ff16604051808060200183600181111561137957fe5b60ff168152602001828103825284818151815260200191508051906020019080838360005b838110156113b957808201518184015260208101905061139e565b50505050905090810190601f1680156113e65780820380516001836020036101000a031916815260200191505b50935050505060405180910390a26004826040518082805190602001908083835b60208310151561142c5780518252602082019150602081019050602083039250611407565b6001836020036101000a0380198251168184511680821785525050505050509050019150509081526020016040518091039020600a0160009054906101000a900460ff1690505a600881905550600854600754036009819055506177ec6009600082825401925050819055503a60095402600a60008282540192505081905550919050565b6060805a6007819055506004836040518082805190602001908083835b6020831015156114f357805182526020820191506020810190506020830392506114ce565b6001836020036101000a03801982511681845116808217855250505050505090500191505090815260200160405180910390206001016004846040518082805190602001908083835b602083101515611561578051825260208201915060208101905060208303925061153c565b6001836020036101000a0380198251168184511680821785525050505050509050019150509081526020016040518091039020600201818054600181600116156101000203166002900480601f01602080910402602001604051908101604052809291908181526020018280546001816001161561010002031660029004801561162c5780601f106116015761010080835404028352916020019161162c565b820191906000526020600020905b81548152906001019060200180831161160f57829003601f168201915b50505050509150808054600181600116156101000203166002900480601f0160208091040260200160405190810160405280929190818152602001828054600181600116156101000203166002900480156116c85780601f1061169d576101008083540402835291602001916116c8565b820191906000526020600020905b8154815290600101906020018083116116ab57829003601f168201915b50505050509050915091505a600881905550600854600754036009819055506177ec6009600082825401925050819055503a60095402600a60008282540192505081905550915091565b6000806000600181111561172257fe5b81600181111561172e57fe5b14151561173a57600080fd5b611744848461318b565b505092915050565b600a5481565b60085481565b60608060028054600181600116156101000203166002900480601f0160208091040260200160405190810160405280929190818152602001828054600181600116156101000203166002900480156117f15780601f106117c6576101008083540402835291602001916117f1565b820191906000526020600020905b8154815290600101906020018083116117d457829003601f168201915b505050505090506000815111151561180857600080fd5b5a60078190555060038054600181600116156101000203166002900480601f0160208091040260200160405190810160405280929190818152602001828054600181600116156101000203166002900480156118a55780601f1061187a576101008083540402835291602001916118a5565b820191906000526020600020905b81548152906001019060200180831161188857829003601f168201915b505050505091505a600881905550600854600754036009819055506177ec6009600082825401925050819055503a60095402600a600082825401925050819055505090565b8060608190506000815111151561190057600080fd5b5a600781905550826002908051906020019061191d929190613bdc565b503373ffffffffffffffffffffffffffffffffffffffff167f74d8e560d2e870c35b35dc882df2a5c96e2bf1cdb5ef6dd2f9cb433c8d048853846040518080602001828103825283818151815260200191508051906020019080838360005b8381101561199757808201518184015260208101905061197c565b50505050905090810190601f1680156119c45780820380516001836020036101000a031916815260200191505b509250505060405180910390a25a600881905550600854600754036009819055506177ec6009600082825401925050819055503a60095402600a60008282540192505081905550505050565b6000809054906101000a900473ffffffffffffffffffffffffffffffffffffffff1673ffffffffffffffffffffffffffffffffffffffff163373ffffffffffffffffffffffffffffffffffffffff16141515611a6b57600080fd5b7f3ab1d7915d663a46c292b8f01ac13567c748cff5213cb3652695882b5f9b2e0f33604051808273ffffffffffffffffffffffffffffffffffffffff1673ffffffffffffffffffffffffffffffffffffffff16815260200191505060405180910390a13373ffffffffffffffffffffffffffffffffffffffff16ff5b606060028054600181600116156101000203166002900480601f016020809104026020016040519081016040528092919081815260200182805460018160011615610100020316600290048015611b7f5780601f10611b5457610100808354040283529160200191611b7f565b820191906000526020600020905b815481529060010190602001808311611b6257829003601f168201915b5050505050905060008151111515611b9657600080fd5b600160006001811115611ba557fe5b816001811115611bb157fe5b14151515611bbe57600080fd5b5a600781905550610160604051908101604052808d73ffffffffffffffffffffffffffffffffffffffff1681526020018c81526020018b81526020018981526020018a60001916815260200188600019168152602001876000191681526020018660ff168152602001604080519081016040528087815260200186815250815260200160006001811115611c4e57fe5b8152602001600180811115611c5f57fe5b81525060048e6040518082805190602001908083835b602083101515611c9a5780518252602082019150602081019050602083039250611c75565b6001836020036101000a038019825116818451168082178552505050505050905001915050908152602001604051809103902060008201518160000160006101000a81548173ffffffffffffffffffffffffffffffffffffffff021916908373ffffffffffffffffffffffffffffffffffffffff1602179055506020820151816001019080519060200190611d30929190613c5c565b506040820151816002019080519060200190611d4d929190613c5c565b506060820151816003019080519060200190611d6a929190613c5c565b506080820151816004019060001916905560a0820151816005019060001916905560c0820151816006019060001916905560e08201518160070160006101000a81548160ff021916908360ff160217905550610100820151816008016000820151816000015560208201518160010155505061012082015181600a0160006101000a81548160ff02191690836001811115611e0157fe5b021790555061014082015181600a0160016101000a81548160ff02191690836001811115611e2b57fe5b02179055509050508b73ffffffffffffffffffffffffffffffffffffffff167f2617c2026b9eea779bd5ffc878b7346c8e5b7d95b7c7783556b5b4b4787864e88e60006040518080602001836001811115611e8257fe5b60ff168152602001828103825284818151815260200191508051906020019080838360005b83811015611ec2578082015181840152602081019050611ea7565b50505050905090810190601f168015611eef5780820380516001836020036101000a031916815260200191505b50935050505060405180910390a25a600881905550600854600754036009819055506177ec6009600082825401925050819055503a60095402600a6000828254019250508190555050505050505050505050505050565b6000806000606060028054600181600116156101000203166002900480601f016020809104026020016040519081016040528092919081815260200182805460018160011615610100020316600290048015611fe35780601f10611fb857610100808354040283529160200191611fe3565b820191906000526020600020905b815481529060010190602001808311611fc657829003601f168201915b5050505050905060008151111515611ffa57600080fd5b5a6007819055506004856040518082805190602001908083835b6020831015156120395780518252602082019150602081019050602083039250612014565b6001836020036101000a0380198251168184511680821785525050505050509050019150509081526020016040518091039020600501546004866040518082805190602001908083835b6020831015156120a85780518252602082019150602081019050602083039250612083565b6001836020036101000a0380198251168184511680821785525050505050509050019150509081526020016040518091039020600601546004876040518082805190602001908083835b60208310151561211757805182526020820191506020810190506020830392506120f2565b6001836020036101000a038019825116818451168082178552505050505050905001915050908152602001604051809103902060070160009054906101000a900460ff169350935093505a600881905550600854600754036009819055506177ec6009600082825401925050819055503a60095402600a60008282540192505081905550509193909250565b600060606000806000806000606060028054600181600116156101000203166002900480601f0160208091040260200160405190810160405280929190818152602001828054600181600116156101000203166002900480156122475780601f1061221c57610100808354040283529160200191612247565b820191906000526020600020905b81548152906001019060200180831161222a57829003601f168201915b505050505090506000815111151561225e57600080fd5b5a6007819055506004896040518082805190602001908083835b60208310151561229d5780518252602082019150602081019050602083039250612278565b6001836020036101000a038019825116818451168082178552505050505050905001915050908152602001604051809103902060000160009054906101000a900473ffffffffffffffffffffffffffffffffffffffff1660048a6040518082805190602001908083835b60208310151561232c5780518252602082019150602081019050602083039250612307565b6001836020036101000a038019825116818451168082178552505050505050905001915050908152602001604051809103902060030160048b6040518082805190602001908083835b60208310151561239a5780518252602082019150602081019050602083039250612375565b6001836020036101000a03801982511681845116808217855250505050505090500191505090815260200160405180910390206004015460048c6040518082805190602001908083835b60208310151561240957805182526020820191506020810190506020830392506123e4565b6001836020036101000a03801982511681845116808217855250505050505090500191505090815260200160405180910390206008016000015460048d6040518082805190602001908083835b60208310151561247b5780518252602082019150602081019050602083039250612456565b6001836020036101000a03801982511681845116808217855250505050505090500191505090815260200160405180910390206008016001015460048e6040518082805190602001908083835b6020831015156124ed57805182526020820191506020810190506020830392506124c8565b6001836020036101000a0380198251168184511680821785525050505050509050019150509081526020016040518091039020600a0160009054906101000a900460ff1660048f6040518082805190602001908083835b6020831015156125695780518252602082019150602081019050602083039250612544565b6001836020036101000a0380198251168184511680821785525050505050509050019150509081526020016040518091039020600a0160019054906101000a900460ff16858054600181600116156101000203166002900480601f0160208091040260200160405190810160405280929190818152602001828054600181600116156101000203166002900480156126425780601f1061261757610100808354040283529160200191612642565b820191906000526020600020905b81548152906001019060200180831161262557829003601f168201915b5050505050955097509750975097509750975097505a600881905550600854600754036009819055506177ec6009600082825401925050819055503a60095402600a6000828254019250508190555050919395979092949650565b60028054600181600116156101000203166002900480601f0160208091040260200160405190810160405280929190818152602001828054600181600116156101000203166002900480156127335780601f1061270857610100808354040283529160200191612733565b820191906000526020600020905b81548152906001019060200180831161271657829003601f168201915b505050505081565b60608060028054600181600116156101000203166002900480601f0160208091040260200160405190810160405280929190818152602001828054600181600116156101000203166002900480156127d45780601f106127a9576101008083540402835291602001916127d4565b820191906000526020600020905b8154815290600101906020018083116127b757829003601f168201915b50505050509050600081511115156127eb57600080fd5b5a60078190555060028054600181600116156101000203166002900480601f0160208091040260200160405190810160405280929190818152602001828054600181600116156101000203166002900480156128885780601f1061285d57610100808354040283529160200191612888565b820191906000526020600020905b81548152906001019060200180831161286b57829003601f168201915b505050505091505a600881905550600854600754036009819055506177ec6009600082825401925050819055503a60095402600a600082825401925050819055505090565b60605a600781905550600580548060200260200160405190810160405280929190818152602001828054801561295857602002820191906000526020600020905b8160009054906101000a900473ffffffffffffffffffffffffffffffffffffffff1673ffffffffffffffffffffffffffffffffffffffff168152602001906001019080831161290e575b505050505090505a600881905550600854600754036009819055506177ec6009600082825401925050819055503a60095402600a6000828254019250508190555090565b806060819050600081511115156129b257600080fd5b5a60078190555082600390805190602001906129cf929190613bdc565b503373ffffffffffffffffffffffffffffffffffffffff167f04e4e591d22d14223bc0c2a948352d1a93ba82695e446ca5f8b238cfa7d69304846040518080602001828103825283818151815260200191508051906020019080838360005b83811015612a49578082015181840152602081019050612a2e565b50505050905090810190601f168015612a765780820380516001836020036101000a031916815260200191505b509250505060405180910390a25a600881905550600854600754036009819055506177ec6009600082825401925050819055503a60095402600a60008282540192505081905550505050565b60005a60078190555081612ad584613b7a565b1490505a600881905550600854600754036009819055506177ec6009600082825401925050819055503a60095402600a6000828254019250508190555092915050565b6000809054906101000a900473ffffffffffffffffffffffffffffffffffffffff1681565b6000606060028054600181600116156101000203166002900480601f016020809104026020016040519081016040528092919081815260200182805460018160011615610100020316600290048015612bd75780601f10612bac57610100808354040283529160200191612bd7565b820191906000526020600020905b815481529060010190602001808311612bba57829003601f168201915b5050505050905060008151111515612bee57600080fd5b5a60078190555060006004846040518082805190602001908083835b602083101515612c2f5780518252602082019150602081019050602083039250612c0a565b6001836020036101000a038019825116818451168082178552505050505050905001915050908152602001604051809103902060000160009054906101000a900473ffffffffffffffffffffffffffffffffffffffff1673ffffffffffffffffffffffffffffffffffffffff1614151515612ca957600080fd5b60006001811115612cb657fe5b612cbf846110de565b6001811115612cca57fe5b1415612f5c576004836040518082805190602001908083835b602083101515612d085780518252602082019150602081019050602083039250612ce3565b6001836020036101000a038019825116818451168082178552505050505050905001915050908152602001604051809103902060000160009054906101000a900473ffffffffffffffffffffffffffffffffffffffff1691506004836040518082805190602001908083835b602083101515612d995780518252602082019150602081019050602083039250612d74565b6001836020036101000a0380198251168184511680821785525050505050509050019150509081526020016040518091039020600080820160006101000a81549073ffffffffffffffffffffffffffffffffffffffff0219169055600182016000612e049190613cdc565b600282016000612e149190613cdc565b600382016000612e249190613cdc565b6004820160009055600582016000905560068201600090556007820160006101000a81549060ff02191690556008820160008082016000905560018201600090555050600a820160006101000a81549060ff0219169055600a820160016101000a81549060ff021916905550508173ffffffffffffffffffffffffffffffffffffffff167f2617c2026b9eea779bd5ffc878b7346c8e5b7d95b7c7783556b5b4b4787864e88460016040518080602001836001811115612ee057fe5b60ff168152602001828103825284818151815260200191508051906020019080838360005b83811015612f20578082015181840152602081019050612f05565b50505050905090810190601f168015612f4d5780820380516001836020036101000a031916815260200191505b50935050505060405180910390a25b5a600881905550600854600754036009819055506177ec6009600082825401925050819055503a60095402600a60008282540192505081905550505050565b60038054600181600116156101000203166002900480601f0160208091040260200160405190810160405280929190818152602001828054600181600116156101000203166002900480156130315780601f1061300657610100808354040283529160200191613031565b820191906000526020600020905b81548152906001019060200180831161301457829003601f168201915b505050505081565b6000805a600781905550826000191673__ECRecovery____________________________63918a15cf90916040518263ffffffff167c010000000000000000000000000000000000000000000000000000000002815260040180826000191660001916815260200191505060206040518083038186803b1580156130bc57600080fd5b505af41580156130d0573d6000803e3d6000fd5b505050506040513d60208110156130e657600080fd5b810190808051906020019092919050505090507f159d74406473af79416e9634f75531aa9f8fe627e3e98805a96e8bf2b219a0be838260405180836000191660001916815260200182600019166000191681526020019250505060405180910390a18091505a600881905550600854600754036009819055506177ec6009600082825401925050819055503a60095402600a6000828254019250508190555050919050565b60005a600781905550600073ffffffffffffffffffffffffffffffffffffffff166000809054906101000a900473ffffffffffffffffffffffffffffffffffffffff1673ffffffffffffffffffffffffffffffffffffffff16141515156131f157600080fd5b600073ffffffffffffffffffffffffffffffffffffffff168373ffffffffffffffffffffffffffffffffffffffff161415151561322d57600080fd5b6132576000809054906101000a900473ffffffffffffffffffffffffffffffffffffffff16613b7a565b821115151561326557600080fd5b8273ffffffffffffffffffffffffffffffffffffffff166108fc839081150290604051600060405180830381858888f193505050501580156132ab573d6000803e3d6000fd5b508273ffffffffffffffffffffffffffffffffffffffff166000809054906101000a900473ffffffffffffffffffffffffffffffffffffffff1673ffffffffffffffffffffffffffffffffffffffff167fddf252ad1be2c89b69c2b068fc378daa952ba7f163c4a11628f55a4df523b3ef846040518082815260200191505060405180910390a3600190505a600881905550600854600754036009819055506177ec6009600082825401925050819055503a60095402600a6000828254019250508190555092915050565b6000600a54905090565b6000805a600781905550836000191673__ECRecovery____________________________6319045a259091856040518363ffffffff167c010000000000000000000000000000000000000000000000000000000002815260040180836000191660001916815260200180602001828103825283818151815260200191508051906020019080838360005b8381101561342557808201518184015260208101905061340a565b50505050905090810190601f1680156134525780820380516001836020036101000a031916815260200191505b50935050505060206040518083038186803b15801561347057600080fd5b505af4158015613484573d6000803e3d6000fd5b505050506040513d602081101561349a57600080fd5b810190808051906020019092919050505090507f0ebd95e955f78ce9708b03ac34460fd3e9904ae09a210d9c2dd03c75fe4d32f7848483604051808460001916600019168152602001806020018373ffffffffffffffffffffffffffffffffffffffff1673ffffffffffffffffffffffffffffffffffffffff168152602001828103825284818151815260200191508051906020019080838360005b83811015613551578082015181840152602081019050613536565b50505050905090810190601f16801561357e5780820380516001836020036101000a031916815260200191505b5094505050505060405180910390a18091505a600881905550600854600754036009819055506177ec6009600082825401925050819055503a60095402600a600082825401925050819055505092915050565b6000809054906101000a900473ffffffffffffffffffffffffffffffffffffffff1673ffffffffffffffffffffffffffffffffffffffff163373ffffffffffffffffffffffffffffffffffffffff1614151561362c57600080fd5b5a600781905550600660008273ffffffffffffffffffffffffffffffffffffffff1673ffffffffffffffffffffffffffffffffffffffff16815260200190815260200160002060009054906101000a900460ff1615151561368c57600080fd5b60058190806001815401808255809150509060018203906000526020600020016000909192909190916101000a81548173ffffffffffffffffffffffffffffffffffffffff021916908373ffffffffffffffffffffffffffffffffffffffff160217905550506001600660008373ffffffffffffffffffffffffffffffffffffffff1673ffffffffffffffffffffffffffffffffffffffff16815260200190815260200160002060006101000a81548160ff0219169083151502179055508073ffffffffffffffffffffffffffffffffffffffff167fe78a1675a4b4d68d04fc70b93f9c37c5288e084d9b02d718103f7ad5e292b68860405160405180910390a25a600881905550600854600754036009819055506177ec6009600082825401925050819055503a60095402600a6000828254019250508190555050565b60075481565b6000600580549050905090565b6000600580548060200260200160405190810160405280929190818152602001828054801561386157602002820191906000526020600020905b8160009054906101000a900473ffffffffffffffffffffffffffffffffffffffff1673ffffffffffffffffffffffffffffffffffffffff1681526020019060010190808311613817575b50505050506000815111151561387657600080fd5b5a6007819055506006600060058581548110151561389057fe5b9060005260206000200160009054906101000a900473ffffffffffffffffffffffffffffffffffffffff1673ffffffffffffffffffffffffffffffffffffffff1673ffffffffffffffffffffffffffffffffffffffff16815260200190815260200160002060009054906101000a900460ff16151561390e57600080fd5b60058381548110151561391d57fe5b9060005260206000200160009054906101000a900473ffffffffffffffffffffffffffffffffffffffff1691505a600881905550600854600754036009819055506177ec6009600082825401925050819055503a60095402600a6000828254019250508190555050919050565b60058181548110151561399957fe5b906000526020600020016000915054906101000a900473ffffffffffffffffffffffffffffffffffffffff1681565b60008160008060006005805490501115156139e257600080fd5b600073ffffffffffffffffffffffffffffffffffffffff168373ffffffffffffffffffffffffffffffffffffffff1614151515613a1e57600080fd5b60009150600090505b600580549050811015613ab357600581815481101515613a4357fe5b9060005260206000200160009054906101000a900473ffffffffffffffffffffffffffffffffffffffff1673ffffffffffffffffffffffffffffffffffffffff168373ffffffffffffffffffffffffffffffffffffffff161415613aa657600191505b8080600101915050613a27565b8115613b6c57613ac585600a5461318b565b506000809054906101000a900473ffffffffffffffffffffffffffffffffffffffff1673ffffffffffffffffffffffffffffffffffffffff167f281fc4e559d37b8ab6a0c5e72264685fe105e15fdccdf7d01c2f26b3d4d1066886600a54604051808373ffffffffffffffffffffffffffffffffffffffff1673ffffffffffffffffffffffffffffffffffffffff1681526020018281526020019250505060405180910390a25b505050919050565b60095481565b60005a6007819055508173ffffffffffffffffffffffffffffffffffffffff163190505a600881905550600854600754036009819055506177ec6009600082825401925050819055503a60095402600a60008282540192505081905550919050565b828054600181600116156101000203166002900490600052602060002090601f016020900481019282601f10613c1d57805160ff1916838001178555613c4b565b82800160010185558215613c4b579182015b82811115613c4a578251825591602001919060010190613c2f565b5b509050613c589190613d24565b5090565b828054600181600116156101000203166002900490600052602060002090601f016020900481019282601f10613c9d57805160ff1916838001178555613ccb565b82800160010185558215613ccb579182015b82811115613cca578251825591602001919060010190613caf565b5b509050613cd89190613d24565b5090565b50805460018160011615610100020316600290046000825580601f10613d025750613d21565b601f016020900490600052602060002090810190613d209190613d24565b5b50565b613d4691905b80821115613d42576000816000905550600101613d2a565b5090565b905600a165627a7a72305820594f3f20a45b98a862456e54d5cd4afd626e104966db78c547281eeeb950be0d0029",
  "source": "pragma solidity ^0.4.24;\r\n\r\nimport './ECRecovery.sol';\r\nimport './SafeMath.sol';\r\n\r\n/**\r\n * @title Proxy Wallet Smart Contract.\r\n * @author Tap Trust\r\n * @dev Proof of concept implementation of a Solidity proxy wallet.\r\n * Unlike most authentication in Ethereum contracts,\r\n * the address of the transaction sender is arbitrary,\r\n * but it includes a signed message that can be authenticated\r\n * as being from either the account owner or a dApp\r\n * for whom the account owner has created a session with permissions.\r\n */\r\ncontract ProxyWallet {\r\n\r\n  // Using SafeMath library for math expressions.\r\n  using SafeMath for uint256;\r\n\r\n  // Hooking up bytes32 with ERRecovery library.\r\n  using ECRecovery for bytes32;\r\n\r\n  // Owner of the contract.\r\n  address public owner;\r\n\r\n  // Account balance.\r\n  uint256 balance;\r\n\r\n  // Session state.\r\n  enum SessionState {Active, Closed}\r\n\r\n  // Transaction type.\r\n  enum TransactionType {OneTime, Session}\r\n\r\n  // User name.\r\n  string public username;\r\n\r\n  // User public key.\r\n  string public userPublicKey;\r\n\r\n  // Times data structure.\r\n  struct Times {\r\n    uint256 startTime;\r\n    uint256 duration;\r\n  }\r\n\r\n  // Session data structure.\r\n  struct Data {\r\n    address deviceId;\r\n    string keyOne;\r\n    string keyTwo;\r\n    string subject;\r\n    bytes32 hashedData;\r\n    bytes32 r;\r\n    bytes32 s;\r\n    uint8 v;\r\n    Times times;\r\n    SessionState state;\r\n    TransactionType transactionType;\r\n  }\r\n\r\n  // Session data mapping.\r\n  mapping(string => Data) private sessionData;\r\n\r\n  // List of administrator addresses.\r\n  address[] public administrators;\r\n\r\n  // List of administrator checks for each address.\r\n  mapping(address => bool) public isAdministrator;\r\n\r\n  // Start gas value.\r\n  uint256 public remainingGasStart;\r\n\r\n  // Spent gas value.\r\n  uint256 public remainingGasEnd;\r\n\r\n  // Used gas calculation.\r\n  uint256 public usedGas;\r\n\r\n  // Total cost of gas for all methods.\r\n  uint256 public gasCost;\r\n\r\n  /**\r\n   * @dev Requires a valid owner of the contract.\r\n   */\r\n  modifier isOwner() {\r\n    require(msg.sender == owner);\r\n    _;\r\n  }\r\n\r\n  /**\r\n   * @dev Checks if the admin is correct and belongs to list of administrators.\r\n   * @param _admin address Administrator address.\r\n   */\r\n  modifier isAuthorizedAdmin(address _admin) {\r\n    require(administrators.length > 0);\r\n    require(_admin != address(0));\r\n    bool isAdmin = false;\r\n    for (uint256 i = 0; i < administrators.length; i++) {\r\n      if (_admin == administrators[i]) {\r\n        isAdmin = true;\r\n      }\r\n    }\r\n    if (isAdmin) {\r\n      _;\r\n    }\r\n  }\r\n\r\n  /**\r\n   * @dev Requires that a valid administrator address was provided.\r\n   * @param _admin address Administrator address.\r\n   */\r\n  modifier onlyValidAdministrator(address _admin) {\r\n    require(_admin != address(0));\r\n    _;\r\n  }\r\n\r\n  /**\r\n   * @dev Requires that a valid administrator list was provided.\r\n   * @param _administrators address[] List of administrators.\r\n   */\r\n  modifier onlyValidAdministrators(address[] _administrators) {\r\n    require(_administrators.length > 0);\r\n    _;\r\n  }\r\n\r\n  /**\r\n   * @dev Requires that a valid username of the user was provided.\r\n   * @param _username string Username of the user.\r\n   */\r\n  modifier onlyValidUsername(string _username) {\r\n    bytes memory tempValidUsername = bytes(_username);\r\n    require(tempValidUsername.length > 0);\r\n    _;\r\n  }\r\n\r\n  /**\r\n   * @dev Requires that a valid public key of the user was provided.\r\n   * @param _publicKey string Public key of the user.\r\n   */\r\n  modifier onlyValidPublicKey(string _publicKey) {\r\n    bytes memory tempValidPublicKey = bytes(_publicKey);\r\n    require(tempValidPublicKey.length > 0);\r\n    _;\r\n  }\r\n\r\n  /**\r\n   * @dev Check if user is not already added.\r\n   */\r\n  modifier checkIfNotAddedUser() {\r\n    bytes memory tempNotAddedUsername = bytes(username);\r\n    require(tempNotAddedUsername.length == 0);\r\n    _;\r\n  }\r\n\r\n  /**\r\n   * @dev Check if user is already added.\r\n   */\r\n  modifier checkIfAddedUser() {\r\n    bytes memory tempAddedUsername = bytes(username);\r\n    require(tempAddedUsername.length > 0);\r\n    _;\r\n  }\r\n\r\n  /**\r\n   * @dev Checks if account has funds.\r\n   */\r\n  modifier hasFunds() {\r\n    require(balance > 0);\r\n    _;\r\n  }\r\n\r\n  /**\r\n   * @dev Checks if its one time transaction.\r\n   * @param _transactionType TransactionType Type of transaction.\r\n   */\r\n  modifier isOneTimeTransaction(TransactionType _transactionType) {\r\n    require(_transactionType == TransactionType.OneTime);\r\n    _;\r\n  }\r\n\r\n  /**\r\n   * @dev Checks if its not one time transaction.\r\n   * @param _transactionType TransactionType Type of transaction.\r\n   */\r\n  modifier isNotOneTimeTransaction(TransactionType _transactionType) {\r\n    require(_transactionType != TransactionType.OneTime);\r\n    _;\r\n  }\r\n\r\n  /**\r\n   * @dev Calculate used gas.\r\n   * Calculation of the used gas which is used for every function,\r\n   * that executes some kind of interaction with Smart Contract and adds on calculation amount of gas used so far.\r\n   * Using usedGas variable to store total amount of gas used and gasCost variable to store total amount of gas value,\r\n   * used so far (including the current function being run).\r\n   */\r\n  modifier calculateGasCost() {\r\n    remainingGasStart = gasleft();\r\n    _;\r\n    remainingGasEnd = gasleft();\r\n    usedGas = remainingGasStart - remainingGasEnd;\r\n    usedGas += 21000 + 9700;\r\n    gasCost += (usedGas * tx.gasprice);\r\n  }\r\n\r\n  /**\r\n   * Fired when username is set.\r\n   */\r\n  event UsernameSet(address indexed from, string username);\r\n\r\n  /**\r\n   * Fired when public key is set.\r\n   */\r\n  event PublicKeySet(address indexed from, string publicKey);\r\n\r\n  /**\r\n   * Fired when administrator is added.\r\n   */\r\n  event AdministratorAdded(address indexed admin);\r\n\r\n  /**\r\n   * Fired when session data is added/changed.\r\n   */\r\n  event SessionEvent(address indexed deviceId, string dataId, SessionState state);\r\n\r\n  /**\r\n   * Transfer event.\r\n   */\r\n  event Transfer(address indexed from, address indexed to, uint256 value);\r\n\r\n  /**\r\n   * Recovered address event.\r\n   */\r\n  event RecoveredAddress(bytes32 messageHash, bytes sig, address recoveredAddress);\r\n\r\n  /**\r\n   * Signed message event.\r\n   */\r\n  event SignedMessage(bytes32 messageHash, bytes32 signedMessage);\r\n\r\n  /**\r\n   * Gas refund event.\r\n   */\r\n  event GasRefundEvent(address indexed from, address to, uint256 gasCost);\r\n\r\n  /**\r\n   * Contract destroyed event.\r\n   */\r\n  event ContractDestroyed(address contractOwner);\r\n\r\n  /**\r\n   * @dev Proxy Wallet constructor.\r\n   * @param _administrators address[] List of administrator addresses.\r\n   * @param _username string Username of the user.\r\n   * @param _publicKey string Public key of the user.\r\n   */\r\n  constructor(address[] _administrators, string _username, string _publicKey) onlyValidAdministrators(_administrators) checkIfNotAddedUser() public {\r\n    owner = msg.sender;\r\n    balance = address(msg.sender).balance;\r\n    for (uint256 i = 0; i < _administrators.length; i++) {\r\n      addAdministrator(_administrators[i]);\r\n    }\r\n    setNewUsername(_username);\r\n    setNewUserPublicKey(_publicKey);\r\n  }\r\n\r\n  /**\r\n   * @dev Set username of the user/app.\r\n   * @param _username string Username of the user.\r\n   */\r\n  function setNewUsername(string _username) onlyValidUsername(_username) calculateGasCost public {\r\n    username = _username;\r\n    emit UsernameSet(msg.sender, _username);\r\n  }\r\n\r\n  /**\r\n   * @dev Set user/app public key.\r\n   * @param _publicKey string Public key of the user.\r\n   */\r\n  function setNewUserPublicKey(string _publicKey) onlyValidPublicKey(_publicKey) calculateGasCost public {\r\n    userPublicKey = _publicKey;\r\n    emit PublicKeySet(msg.sender, _publicKey);\r\n  }\r\n\r\n  /**\r\n   * @dev Add session data and start session.\r\n   * @param _dataId string Data id value.\r\n   * @param _deviceId string Device id value.\r\n   * @param _first string First key.\r\n   * @param _second string Second key.\r\n   * @param _hashed bytes32 Hashed value.\r\n   * @param _subject string Description/subject value.\r\n   * @param r bytes32 Signature r param.\r\n   * @param s bytes32 Signature s param.\r\n   * @param v uint8 Signature v param.\r\n   * @param _startTime uint256 Session start time value.\r\n   * @param _duration uint256 Session length value.\r\n   */\r\n  function startSession(string _dataId, address _deviceId, string _first, string _second, bytes32 _hashed, string _subject, bytes32 r, bytes32 s, uint8 v, uint256 _startTime, uint256 _duration) checkIfAddedUser isNotOneTimeTransaction(TransactionType.Session) calculateGasCost public {\r\n    sessionData[_dataId] = Data(_deviceId, _first, _second, _subject, _hashed, r, s, v, Times(_startTime, _duration), SessionState.Active, TransactionType.Session);\r\n    emit SessionEvent(_deviceId, _dataId, SessionState.Active);\r\n  }\r\n\r\n  /**\r\n   * @dev Close session.\r\n   * @param _dataId string Data id value.\r\n   */\r\n  function closeSession(string _dataId) checkIfAddedUser calculateGasCost public {\r\n    require(sessionData[_dataId].deviceId != 0);\r\n    if (checkSessionState(_dataId) == SessionState.Active) {\r\n      address deviceId = sessionData[_dataId].deviceId;\r\n      delete sessionData[_dataId];\r\n      emit SessionEvent(deviceId, _dataId, SessionState.Closed);\r\n    }\r\n  }\r\n\r\n  /**\r\n   * @dev Check if session is active or closed.\r\n   * @param _dataId string Data id value.\r\n   * @return SessionState State of the session.\r\n   */\r\n  function checkSessionState(string _dataId) calculateGasCost public returns (SessionState) {\r\n    require(sessionData[_dataId].state == SessionState.Active || sessionData[_dataId].state == SessionState.Closed);\r\n    emit SessionEvent(sessionData[_dataId].deviceId, _dataId, sessionData[_dataId].state);\r\n    return sessionData[_dataId].state;\r\n  }\r\n\r\n  /**\r\n   * @dev Add a new administrator to the contract.\r\n   * @param _admin address The address of the administrator to add.\r\n   */\r\n  function addAdministrator(address _admin) isOwner calculateGasCost public {\r\n    require(!isAdministrator[_admin]);\r\n    administrators.push(_admin);\r\n    isAdministrator[_admin] = true;\r\n    emit AdministratorAdded(_admin);\r\n  }\r\n\r\n  /**\r\n   * @dev Get all administrator addresses.\r\n   * @param _id uint256 Id of the administrator.\r\n   * @return address Administrators address.\r\n   */\r\n  function getAdministrator(uint256 _id) onlyValidAdministrators(administrators) calculateGasCost public returns (address) {\r\n    require(isAdministrator[administrators[_id]]);\r\n    return administrators[_id];\r\n  }\r\n\r\n  /**\r\n   * @dev Get all administrator addresses.\r\n   * @return address[] List of all administrators.\r\n   */\r\n  function getAllAdministrators() calculateGasCost public returns (address[]) {\r\n    return administrators;\r\n  }\r\n\r\n  /**\r\n   * @dev Get all administrators length.\r\n   * @return uint Number of all administrators.\r\n   */\r\n  function getAdministratorsCount() public constant returns (uint) {\r\n    return administrators.length;\r\n  }\r\n\r\n  /**\r\n   * @dev Get public key value from session data.\r\n   * @param _dataId string Data id value used as index to find data from session.\r\n   * @return string, string First and second key from session data.\r\n   */\r\n  function getPublicKeyFromSession(string _dataId) calculateGasCost public returns (string, string) {\r\n    return (sessionData[_dataId].keyOne, sessionData[_dataId].keyTwo);\r\n  }\r\n\r\n  /**\r\n   * @dev Get user stored public key of given address.\r\n   * @return string User stored public key.\r\n   */\r\n  function getPublicKey() checkIfAddedUser calculateGasCost public returns (string) {\r\n    return userPublicKey;\r\n  }\r\n\r\n  /**\r\n   * @dev Get user stored username of given address.\r\n   * @return string User stored username.\r\n   */\r\n  function getUsername() checkIfAddedUser calculateGasCost public returns (string) {\r\n    return username;\r\n  }\r\n\r\n  /**\r\n   * @dev Get signature value from session data.\r\n   * @param _dataId string Data id value used as index to find data from session.\r\n   * @return bytes32, bytes32, uint8 Signature data.\r\n   */\r\n  function getSignature(string _dataId) checkIfAddedUser calculateGasCost public returns (bytes32, bytes32, uint8)  {\r\n    return (sessionData[_dataId].r, sessionData[_dataId].s, sessionData[_dataId].v);\r\n  }\r\n\r\n  /**\r\n   * @dev Get other session data from session data.\r\n   * @param _dataId string Data id value used as index to find data from session.\r\n   * @return address, string, bytes32, uint256, uint256, SessionState, TransactionType Device id, subject, hashed data, start time, duration value, user data, session state and transaction type from session.\r\n   */\r\n  function getOtherSessionData(string _dataId) checkIfAddedUser calculateGasCost public returns (address, string, bytes32, uint256, uint256, SessionState, TransactionType)  {\r\n    return (sessionData[_dataId].deviceId, sessionData[_dataId].subject, sessionData[_dataId].hashedData, sessionData[_dataId].times.startTime, sessionData[_dataId].times.duration, sessionData[_dataId].state, sessionData[_dataId].transactionType);\r\n  }\r\n\r\n  /**\r\n   * @dev Get current total gas cost.\r\n   * @return uint256 Current gas cost.\r\n   */\r\n  function getCurrentSpentGas() public view returns (uint256) {\r\n    return gasCost;\r\n  }\r\n\r\n  /**\r\n   * @dev Sign message address which signed the message.\r\n   * @param _messageHash bytes32 Hashed message that needs to be signed.\r\n   * @return bytes32 Encoded message.\r\n   */\r\n  function signMessage(bytes32 _messageHash) calculateGasCost public returns (bytes32) {\r\n    bytes32 result = _messageHash.toEthSignedMessageHash();\r\n    emit SignedMessage(_messageHash, result);\r\n    return result;\r\n  }\r\n\r\n  /**\r\n   * @dev Recover address which signed the message.\r\n   * @param _messageHash bytes32 Hashed message that needs to be checked.\r\n   * @param _sig bytes Signature hashed value.\r\n   * @return address Returning address which signed the message.\r\n   */\r\n  function recoverAddress(bytes32 _messageHash, bytes _sig) calculateGasCost public returns (address) {\r\n    address result = _messageHash.recover(_sig);\r\n    emit RecoveredAddress(_messageHash, _sig, result);\r\n    return result;\r\n  }\r\n\r\n  /**\r\n   * @dev Check if the given address signed the message.\r\n   * @param _address address Address which signed the message.\r\n   * @param _messageHash bytes32 Hashed message that needs to be checked.\r\n   * @param _sig bytes Signature message.\r\n   * @return bool True if the given address signed the message.\r\n   */\r\n  function isSignedMessage(address _address, bytes32 _messageHash, bytes _sig) calculateGasCost internal returns (bool) {\r\n    return recoverAddress(_messageHash, _sig) == _address;\r\n  }\r\n\r\n  /**\r\n   * @dev Get balance of the account.\r\n   * @param _address address Address of account which balanced needs to be returned.\r\n   * @return uint256 Balance of the account.\r\n   */\r\n  function getBalance(address _address) calculateGasCost public returns (uint256) {\r\n    return address(_address).balance;\r\n  }\r\n\r\n  /**\r\n   * @dev Check if the account has exact same balance like give balance.\r\n   * @param _address address Account address.\r\n   * @param _balance uint256 Give balance to compare with.\r\n   * @return True if the account balance has the exact same balance like give balance.\r\n   */\r\n  function checkIfAccountHasExactBalance(address _address, uint256 _balance) calculateGasCost public returns (bool) {\r\n    return getBalance(_address) == _balance;\r\n  }\r\n\r\n  /**\r\n   * @dev Check if its one time transaction and execute transfer.\r\n   * @param _to address The address to transfer to.\r\n   * @param _value uint256 The amount to be transferred.\r\n   * @return bool True if the function was executed successfully.\r\n   */\r\n  function executeOneTimeTransaction(address _to, uint256 _value) isOneTimeTransaction(TransactionType.OneTime) public returns (bool) {\r\n    transfer(_to, _value);\r\n  }\r\n\r\n  /**\r\n   * @dev Transfer funds for a specified address.\r\n   * @param _to address The address to transfer to.\r\n   * @param _value uint256 The amount to be transferred.\r\n   * @return bool True if the function was executed successfully.\r\n   */\r\n  function transfer(address _to, uint256 _value) calculateGasCost public payable returns (bool) {\r\n    require(owner != address(0));\r\n    require(_to != address(0));\r\n    require(_value <= getBalance(owner));\r\n    _to.transfer(_value);\r\n    emit Transfer(owner, _to, _value);\r\n    return true;\r\n  }\r\n\r\n  /**\r\n   * @dev Refund total cast costs to authorized admin address.\r\n   * @param _admin address The address of admin.\r\n   * @return bool True if the function was executed successfully.\r\n   */\r\n  function refundGasCosts(address _admin) isAuthorizedAdmin(_admin) public returns (bool) {\r\n    transfer(_admin, gasCost);\r\n    emit GasRefundEvent(owner, _admin, gasCost);\r\n  }\r\n\r\n  /**\r\n   * @dev Destroy the contract.\r\n   */\r\n  function kill() isOwner public {\r\n    emit ContractDestroyed(msg.sender);\r\n    selfdestruct(msg.sender);\r\n  }\r\n}\r\n",
  "sourcePath": "C:\\Users\\Chance\\Desktop\\taptrust-wallet-contracts\\contracts\\ProxyWallet.sol",
  "compiler": {
    "name": "solc",
    "version": "0.4.24+commit.e67f0147.Emscripten.clang"
  },
  "schemaVersion": "2.0.1",
  "updatedAt": "2018-12-04T21:12:23.632Z"
}