{
  "contractName": "ProxyWallet",
  "abi": [
    {
      "constant": false,
      "inputs": [
        {
          "name": "contractAddress",
          "type": "address"
        },
        {
          "name": "donorAddress",
          "type": "address"
        },
        {
          "name": "redeemAmount",
          "type": "uint256"
        },
        {
          "name": "voucherFunctionData",
          "type": "bytes"
        }
      ],
      "name": "requestContractVouchers",
      "outputs": [],
      "payable": false,
      "stateMutability": "nonpayable",
      "type": "function"
    },
    {
      "constant": false,
      "inputs": [
        {
          "name": "contractAddress",
          "type": "address"
        },
        {
          "name": "voucherFunctionData",
          "type": "bytes"
        }
      ],
      "name": "forwardRedeemedVouchers",
      "outputs": [],
      "payable": true,
      "stateMutability": "payable",
      "type": "function"
    },
    {
      "constant": true,
      "inputs": [],
      "name": "isRegistry",
      "outputs": [
        {
          "name": "",
          "type": "bool"
        }
      ],
      "payable": false,
      "stateMutability": "view",
      "type": "function"
    },
    {
      "constant": true,
      "inputs": [
        {
          "name": "",
          "type": "bytes32"
        }
      ],
      "name": "usedMessageHashes",
      "outputs": [
        {
          "name": "",
          "type": "bool"
        }
      ],
      "payable": false,
      "stateMutability": "view",
      "type": "function"
    },
    {
      "constant": true,
      "inputs": [],
      "name": "isOwner",
      "outputs": [
        {
          "name": "",
          "type": "bool"
        }
      ],
      "payable": false,
      "stateMutability": "view",
      "type": "function"
    },
    {
      "constant": true,
      "inputs": [],
      "name": "userPublicKey",
      "outputs": [
        {
          "name": "",
          "type": "bytes"
        }
      ],
      "payable": false,
      "stateMutability": "view",
      "type": "function"
    },
    {
      "constant": true,
      "inputs": [],
      "name": "nextNonce",
      "outputs": [
        {
          "name": "",
          "type": "uint256"
        }
      ],
      "payable": false,
      "stateMutability": "view",
      "type": "function"
    },
    {
      "payable": true,
      "stateMutability": "payable",
      "type": "fallback"
    },
    {
      "anonymous": false,
      "inputs": [
        {
          "indexed": false,
          "name": "_publicKey",
          "type": "bytes"
        }
      ],
      "name": "PublicKeyChanged",
      "type": "event"
    },
    {
      "anonymous": false,
      "inputs": [
        {
          "indexed": false,
          "name": "to",
          "type": "address"
        },
        {
          "indexed": false,
          "name": "value",
          "type": "uint256"
        },
        {
          "indexed": false,
          "name": "data",
          "type": "bytes"
        }
      ],
      "name": "TransactionSent",
      "type": "event"
    },
    {
      "anonymous": false,
      "inputs": [
        {
          "indexed": false,
          "name": "to",
          "type": "address"
        },
        {
          "indexed": false,
          "name": "value",
          "type": "uint256"
        },
        {
          "indexed": false,
          "name": "data",
          "type": "bytes"
        }
      ],
      "name": "TransactionFailed",
      "type": "event"
    },
    {
      "constant": false,
      "inputs": [
        {
          "name": "registry",
          "type": "address"
        },
        {
          "name": "owner",
          "type": "address"
        }
      ],
      "name": "initialize",
      "outputs": [],
      "payable": false,
      "stateMutability": "nonpayable",
      "type": "function"
    },
    {
      "constant": false,
      "inputs": [
        {
          "name": "publicKey",
          "type": "bytes"
        },
        {
          "name": "registry",
          "type": "address"
        }
      ],
      "name": "initialize",
      "outputs": [],
      "payable": false,
      "stateMutability": "nonpayable",
      "type": "function"
    },
    {
      "constant": false,
      "inputs": [
        {
          "name": "nonce",
          "type": "uint256"
        },
        {
          "name": "gasPrice",
          "type": "uint256"
        },
        {
          "name": "gasLimit",
          "type": "uint256"
        },
        {
          "name": "publicKey",
          "type": "bytes"
        },
        {
          "name": "signature",
          "type": "bytes"
        }
      ],
      "name": "changePublicKey",
      "outputs": [],
      "payable": false,
      "stateMutability": "nonpayable",
      "type": "function"
    },
    {
      "constant": false,
      "inputs": [
        {
          "name": "nonce",
          "type": "uint256"
        },
        {
          "name": "gasPrice",
          "type": "uint256"
        },
        {
          "name": "gasLimit",
          "type": "uint256"
        },
        {
          "name": "to",
          "type": "address"
        },
        {
          "name": "value",
          "type": "uint256"
        },
        {
          "name": "data",
          "type": "bytes"
        },
        {
          "name": "signature",
          "type": "bytes"
        }
      ],
      "name": "sendTransaction",
      "outputs": [],
      "payable": false,
      "stateMutability": "nonpayable",
      "type": "function"
    }
  ],
  "bytecode": "0x608060405234801561001057600080fd5b50611b40806100206000396000f3006080604052600436106100af576000357c0100000000000000000000000000000000000000000000000000000000900463ffffffff168063098190d3146100b157806337a70dc31461017e5780633c0c45a514610231578063485cc955146102ad5780637b97c8b51461031057806387d692071461033f5780638f32d59b146103885780639f2ce30f146103b7578063cce2df0314610447578063d69c3d30146104d0578063ec72b0ad146104fb575b005b3480156100bd57600080fd5b5061017c600480360381019080803590602001909291908035906020019092919080359060200190929190803590602001908201803590602001908080601f0160208091040260200160405190810160405280939291908181526020018383808284378201915050505050509192919290803590602001908201803590602001908080601f01602080910402602001604051908101604052809392919081815260200183838082843782019150505050505091929192905050506105f2565b005b34801561018a57600080fd5b5061022f600480360381019080803573ffffffffffffffffffffffffffffffffffffffff169060200190929190803573ffffffffffffffffffffffffffffffffffffffff16906020019092919080359060200190929190803590602001908201803590602001908080601f0160208091040260200160405190810160405280939291908181526020018383808284378201915050505050509192919290505050610b0b565b005b6102ab600480360381019080803573ffffffffffffffffffffffffffffffffffffffff169060200190929190803590602001908201803590602001908080601f0160208091040260200160405190810160405280939291908181526020018383808284378201915050505050509192919290505050610ca2565b005b3480156102b957600080fd5b5061030e600480360381019080803573ffffffffffffffffffffffffffffffffffffffff169060200190929190803573ffffffffffffffffffffffffffffffffffffffff169060200190929190505050610d4c565b005b34801561031c57600080fd5b50610325610f2b565b604051808215151515815260200191505060405180910390f35b34801561034b57600080fd5b5061036e6004803603810190808035600019169060200190929190505050610f83565b604051808215151515815260200191505060405180910390f35b34801561039457600080fd5b5061039d610fa3565b604051808215151515815260200191505060405180910390f35b3480156103c357600080fd5b506103cc610ffb565b6040518080602001828103825283818151815260200191508051906020019080838360005b8381101561040c5780820151818401526020810190506103f1565b50505050905090810190601f1680156104395780820380516001836020036101000a031916815260200191505b509250505060405180910390f35b34801561045357600080fd5b506104ce600480360381019080803590602001908201803590602001908080601f0160208091040260200160405190810160405280939291908181526020018383808284378201915050505050509192919290803573ffffffffffffffffffffffffffffffffffffffff169060200190929190505050611099565b005b3480156104dc57600080fd5b506104e561126f565b6040518082815260200191505060405180910390f35b34801561050757600080fd5b506105f0600480360381019080803590602001909291908035906020019092919080359060200190929190803573ffffffffffffffffffffffffffffffffffffffff16906020019092919080359060200190929190803590602001908201803590602001908080601f0160208091040260200160405190810160405280939291908181526020018383808284378201915050505050509192919290803590602001908201803590602001908080601f0160208091040260200160405190810160405280939291908181526020018383808284378201915050505050509192919290505050611275565b005b84848460405160200180848152602001838152602001828152602001807f6368616e67655075626c69634b65790000000000000000000000000000000000815250600f0193505050506040516020818303038152906040528186868660008060005a925061066984866119b790919063ffffffff16565b3073ffffffffffffffffffffffffffffffffffffffff16311015151561068e57600080fd5b843a14801561069d5750838310155b15156106a857600080fd5b60008614806106b8575085603654145b15156106c357600080fd5b876040518082805190602001908083835b6020831015156106f957805182526020820191506020810190506020830392506106d4565b6001836020036101000a03801982511681845116808217855250505050505090500191505060405180910390206000191673__ECRecovery____________________________63918a15cf90916040518263ffffffff167c010000000000000000000000000000000000000000000000000000000002815260040180826000191660001916815260200191505060206040518083038186803b15801561079e57600080fd5b505af41580156107b2573d6000803e3d6000fd5b505050506040513d60208110156107c857600080fd5b81019080805190602001909291905050509150816000191673__ECRecovery____________________________6319045a259091896040518363ffffffff167c010000000000000000000000000000000000000000000000000000000002815260040180836000191660001916815260200180602001828103825283818151815260200191508051906020019080838360005b8381101561087657808201518184015260208101905061085b565b50505050905090810190601f1680156108a35780820380516001836020036101000a031916815260200191505b50935050505060206040518083038186803b1580156108c157600080fd5b505af41580156108d5573d6000803e3d6000fd5b505050506040513d60208110156108eb57600080fd5b810190808051906020019092919050505090506035604051808280546001816001161561010002031660029004801561095b5780601f1061093957610100808354040283529182019161095b565b820191906000526020600020905b815481529060010190602001808311610947575b505091505060405180910390206001900473ffffffffffffffffffffffffffffffffffffffff168173ffffffffffffffffffffffffffffffffffffffff161415156109a557600080fd5b6000861415610a1c5760376000836000191660001916815260200190815260200160002060009054906101000a900460ff161515156109e357600080fd5b600160376000846000191660001916815260200190815260200160002060006101000a81548160ff021916908315150217905550610a2f565b6036600081548092919060010191905055505b60408a51141515610a3f57600080fd5b8960359080519060200190610a55929190611a6f565b507f24d7290cae26258bf6b056cf0630e7b5ef7f56fdec5dd3382581a7986c3a36e98a6040518080602001828103825283818151815260200191508051906020019080838360005b83811015610ab8578082015181840152602081019050610a9d565b50505050905090810190601f168015610ae55780820380516001836020036101000a031916815260200191505b509250505060405180910390a1610afc83866119f5565b50505050505050505050505050565b610b13610fa3565b1515610b1e57600080fd5b603360009054906101000a900473ffffffffffffffffffffffffffffffffffffffff1673ffffffffffffffffffffffffffffffffffffffff1663ba93e71a858585856040518563ffffffff167c0100000000000000000000000000000000000000000000000000000000028152600401808573ffffffffffffffffffffffffffffffffffffffff1673ffffffffffffffffffffffffffffffffffffffff1681526020018473ffffffffffffffffffffffffffffffffffffffff1673ffffffffffffffffffffffffffffffffffffffff16815260200183815260200180602001828103825283818151815260200191508051906020019080838360005b83811015610c35578082015181840152602081019050610c1a565b50505050905090810190601f168015610c625780820380516001836020036101000a031916815260200191505b5095505050505050600060405180830381600087803b158015610c8457600080fd5b505af1158015610c98573d6000803e3d6000fd5b5050505050505050565b610caa610f2b565b1515610cb557600080fd5b8173ffffffffffffffffffffffffffffffffffffffff16348260405180828051906020019080838360005b83811015610cfb578082015181840152602081019050610ce0565b50505050905090810190601f168015610d285780820380516001836020036101000a031916815260200191505b5091505060006040518083038185875af1925050501515610d4857600080fd5b5050565b60008060019054906101000a900460ff1680610d6c5750610d6b611a5e565b5b80610d8357506000809054906101000a900460ff16155b1515610e1d576040517f08c379a000000000000000000000000000000000000000000000000000000000815260040180806020018281038252602e8152602001807f436f6e747261637420696e7374616e63652068617320616c726561647920626581526020017f656e20696e697469616c697a656400000000000000000000000000000000000081525060400191505060405180910390fd5b600060019054906101000a900460ff1690506001600060016101000a81548160ff02191690831515021790555060016000806101000a81548160ff02191690831515021790555060008373ffffffffffffffffffffffffffffffffffffffff1614151515610e8a57600080fd5b82603360006101000a81548173ffffffffffffffffffffffffffffffffffffffff021916908373ffffffffffffffffffffffffffffffffffffffff16021790555081603460006101000a81548173ffffffffffffffffffffffffffffffffffffffff021916908373ffffffffffffffffffffffffffffffffffffffff16021790555080600060016101000a81548160ff021916908315150217905550505050565b6000603360009054906101000a900473ffffffffffffffffffffffffffffffffffffffff1673ffffffffffffffffffffffffffffffffffffffff163373ffffffffffffffffffffffffffffffffffffffff1614905090565b60376020528060005260406000206000915054906101000a900460ff1681565b6000603460009054906101000a900473ffffffffffffffffffffffffffffffffffffffff1673ffffffffffffffffffffffffffffffffffffffff163373ffffffffffffffffffffffffffffffffffffffff1614905090565b60358054600181600116156101000203166002900480601f0160208091040260200160405190810160405280929190818152602001828054600181600116156101000203166002900480156110915780601f1061106657610100808354040283529160200191611091565b820191906000526020600020905b81548152906001019060200180831161107457829003601f168201915b505050505081565b60008060019054906101000a900460ff16806110b957506110b8611a5e565b5b806110d057506000809054906101000a900460ff16155b151561116a576040517f08c379a000000000000000000000000000000000000000000000000000000000815260040180806020018281038252602e8152602001807f436f6e747261637420696e7374616e63652068617320616c726561647920626581526020017f656e20696e697469616c697a656400000000000000000000000000000000000081525060400191505060405180910390fd5b600060019054906101000a900460ff1690506001600060016101000a81548160ff02191690831515021790555060016000806101000a81548160ff021916908315150217905550604083511415156111c157600080fd5b82603590805190602001906111d7929190611a6f565b50600160368190555061125082846040518082805190602001908083835b60208310151561121a57805182526020820191506020810190506020830392506111f5565b6001836020036101000a038019825116818451168082178552505050505050905001915050604051809103902060019004610d4c565b80600060016101000a81548160ff021916908315150217905550505050565b60365481565b868686868686604051602001808781526020018681526020018581526020018473ffffffffffffffffffffffffffffffffffffffff1673ffffffffffffffffffffffffffffffffffffffff166c0100000000000000000000000002815260140183815260200182805190602001908083835b60208310151561130c57805182526020820191506020810190506020830392506112e7565b6001836020036101000a038019825116818451168082178552505050505050905001807f73656e645472616e73616374696f6e0000000000000000000000000000000000815250600f0196505050505050506040516020818303038152906040528188888860008060005a925061138c84866119b790919063ffffffff16565b3073ffffffffffffffffffffffffffffffffffffffff1631101515156113b157600080fd5b843a1480156113c05750838310155b15156113cb57600080fd5b60008614806113db575085603654145b15156113e657600080fd5b876040518082805190602001908083835b60208310151561141c57805182526020820191506020810190506020830392506113f7565b6001836020036101000a03801982511681845116808217855250505050505090500191505060405180910390206000191673__ECRecovery____________________________63918a15cf90916040518263ffffffff167c010000000000000000000000000000000000000000000000000000000002815260040180826000191660001916815260200191505060206040518083038186803b1580156114c157600080fd5b505af41580156114d5573d6000803e3d6000fd5b505050506040513d60208110156114eb57600080fd5b81019080805190602001909291905050509150816000191673__ECRecovery____________________________6319045a259091896040518363ffffffff167c010000000000000000000000000000000000000000000000000000000002815260040180836000191660001916815260200180602001828103825283818151815260200191508051906020019080838360005b8381101561159957808201518184015260208101905061157e565b50505050905090810190601f1680156115c65780820380516001836020036101000a031916815260200191505b50935050505060206040518083038186803b1580156115e457600080fd5b505af41580156115f8573d6000803e3d6000fd5b505050506040513d602081101561160e57600080fd5b810190808051906020019092919050505090506035604051808280546001816001161561010002031660029004801561167e5780601f1061165c57610100808354040283529182019161167e565b820191906000526020600020905b81548152906001019060200180831161166a575b505091505060405180910390206001900473ffffffffffffffffffffffffffffffffffffffff168173ffffffffffffffffffffffffffffffffffffffff161415156116c857600080fd5b600086141561173f5760376000836000191660001916815260200190815260200160002060009054906101000a900460ff1615151561170657600080fd5b600160376000846000191660001916815260200190815260200160002060006101000a81548160ff021916908315150217905550611752565b6036600081548092919060010191905055505b8b73ffffffffffffffffffffffffffffffffffffffff168b6152088f03908c60405180828051906020019080838360005b8381101561179e578082015181840152602081019050611783565b50505050905090810190601f1680156117cb5780820380516001836020036101000a031916815260200191505b50915050600060405180830381858888f19350505050156118c3577fecab3de0c5f272cfe8e64c31e8ebf2d65491d411a8fc9010fe05aa2534f40a7d8c8c8c604051808473ffffffffffffffffffffffffffffffffffffffff1673ffffffffffffffffffffffffffffffffffffffff16815260200183815260200180602001828103825283818151815260200191508051906020019080838360005b83811015611882578082015181840152602081019050611867565b50505050905090810190601f1680156118af5780820380516001836020036101000a031916815260200191505b5094505050505060405180910390a161199c565b7f8091ecaaa54ebb82e02d36c2c336528e0fcb9b3430fc1291ac88295032b9c2638c8c8c604051808473ffffffffffffffffffffffffffffffffffffffff1673ffffffffffffffffffffffffffffffffffffffff16815260200183815260200180602001828103825283818151815260200191508051906020019080838360005b8381101561195f578082015181840152602081019050611944565b50505050905090810190601f16801561198c5780820380516001836020036101000a031916815260200191505b5094505050505060405180910390a15b6119a683866119f5565b505050505050505050505050505050565b60008060008414156119cc57600091506119ee565b82840290508284828115156119dd57fe5b041415156119ea57600080fd5b8091505b5092915050565b5a820391506193e0820191503373ffffffffffffffffffffffffffffffffffffffff166108fc611a2e83856119b790919063ffffffff16565b9081150290604051600060405180830381858888f19350505050158015611a59573d6000803e3d6000fd5b505050565b600080303b90506000811491505090565b828054600181600116156101000203166002900490600052602060002090601f016020900481019282601f10611ab057805160ff1916838001178555611ade565b82800160010185558215611ade579182015b82811115611add578251825591602001919060010190611ac2565b5b509050611aeb9190611aef565b5090565b611b1191905b80821115611b0d576000816000905550600101611af5565b5090565b905600a165627a7a72305820230853b0a2985f6247b6d6f2f92fe715b6398384c0dee9aa408ea1bf5c3a17fd0029",
  "source": "pragma solidity ^0.4.24;\n\nimport './ECRecovery.sol';\nimport './trustfund-vouchers/contracts/VouchersUser.sol';\n\n/**\n * @title Proxy Wallet Smart Contract.\n * @author Tap Trust\n * @dev Proof of concept implementation of a Solidity proxy wallet.\n * Unlike most authentication in Ethereum contracts,\n * the address of the transaction sender is arbitrary,\n * but it includes a signed message that can be authenticated\n * as being from either the account owner.\n */\ncontract ProxyWallet is VouchersUser {\n\n\t// Using SafeMath library for math expressions.\n\tusing SafeMath for uint256;\n\n\t// Hooking up bytes32 with ERRecovery library.\n\tusing ECRecovery for bytes32;\n\n\tbytes public userPublicKey;\n\n\tuint public nextNonce;\n\tmapping(bytes32 => bool) public usedMessageHashes;\n\t\n\tfunction initialize(bytes publicKey, VouchersRegistry registry) initializer public {\n\t\trequire(publicKey.length == 64);\n\t\tuserPublicKey = publicKey;\n\t\tnextNonce = 1;\n\t\tinitialize(registry, address(keccak256(publicKey)));\n\t}\n\t\n\tfunction() public payable { }\n\t\n\tmodifier requireSignedMessage(bytes message, bytes signature, uint256 nonce, uint gasPrice, uint gasLimit) {\n\t    uint gas = gasleft();\n\t    require(address(this).balance >= gasPrice.mul(gasLimit));\n\t    require(tx.gasprice == gasPrice && gas >= gasLimit);\n\t    \n\t    //If message includes a nonce, ensure that it is the next nonce that we expect to execute.\n\t\trequire(nonce == 0 || nextNonce == nonce);\n\t\t\t\n\t\t// This recreates the message that was signed on the client.\n\t\tbytes32 messageHash = keccak256(message).toEthSignedMessageHash();\n\t\taddress recoveredSigner = messageHash.recover(signature);\n\n\t\t// Require that the signature recovers the correct user address of the owner.\n\t\trequire(recoveredSigner == address(keccak256(userPublicKey)));\n\n\t\t//Prevent replay of signed messages.\n\t\tif(nonce == 0) {\n\t\t\trequire(!usedMessageHashes[messageHash]);\n\t\t\tusedMessageHashes[messageHash] = true;\n\t\t} else {\n\t\t\tnextNonce++;\n\t\t}\n\t    _;\n\t    refundGas(gas, gasPrice);\n\t}\n\t\n\tfunction refundGas(uint gas, uint gasPrice) private {\n\t    gas -= gasleft();\n\t    gas += 37856;\n\t\tmsg.sender.transfer(gas.mul(gasPrice));\n\t}\n\t\n\tevent PublicKeyChanged(bytes _publicKey);\n\t\n\tfunction changePublicKey(uint nonce, uint gasPrice, uint gasLimit, bytes publicKey, bytes signature) public \n\t    requireSignedMessage(abi.encodePacked(nonce, gasPrice, gasLimit, \"changePublicKey\"), signature, nonce, gasPrice, gasLimit)\n\t{\n\t    require(publicKey.length == 64);\n\t\tuserPublicKey = publicKey;\n\t\temit PublicKeyChanged(publicKey);\n\t}\n\t\n\tevent TransactionSent(address to, uint256 value, bytes data);\n\tevent TransactionFailed(address to, uint256 value, bytes data);\n\n\tfunction sendTransaction(uint256 nonce, uint256 gasPrice, uint256 gasLimit, address to, uint256 value, bytes data, bytes signature) public \n\t    requireSignedMessage(abi.encodePacked(nonce, gasPrice, gasLimit, to, value, data, \"sendTransaction\"), signature, nonce, gasPrice, gasLimit)\n\t{\n\t\tif(to.call.value(value).gas(gasLimit - 21000)(data))\n\t\t    emit TransactionSent(to,value,data);\n\t\telse\n\t\t    emit TransactionFailed(to,value,data);\n\t}\n}\n",
  "sourcePath": "/Users/jamesl/Dropbox/TapTrust/code/taptrust-wallet-contracts/contracts/ProxyWallet.sol",
  "compiler": {
    "name": "solc",
    "version": "0.4.24+commit.e67f0147.Emscripten.clang"
  },
  "schemaVersion": "3.0.1",
  "updatedAt": "2019-01-24T02:33:21.163Z",
  "devdoc": {
    "author": "Tap Trust",
    "methods": {},
    "title": "Proxy Wallet Smart Contract."
  },
  "userdoc": {
    "methods": {}
  }
}