{
  "contractName": "WalletFactory",
  "abi": [
    {
      "anonymous": false,
      "inputs": [
        {
          "indexed": true,
          "name": "wallet",
          "type": "address"
        }
      ],
      "name": "WalletCreated",
      "type": "event"
    },
    {
      "constant": false,
      "inputs": [
        {
          "name": "publicKey",
          "type": "bytes"
        }
      ],
      "name": "createNewWallet",
      "outputs": [],
      "payable": false,
      "stateMutability": "nonpayable",
      "type": "function"
    }
  ],
  "bytecode": "0x608060405234801561001057600080fd5b506114bd806100206000396000f300608060405260043610610041576000357c0100000000000000000000000000000000000000000000000000000000900463ffffffff168063aeef482314610046575b600080fd5b34801561005257600080fd5b506100ad600480360381019080803590602001908201803590602001908080601f01602080910402602001604051908101604052809392919081815260200183838082843782019150505050505091929192905050506100af565b005b806100b8610189565b8080602001828103825283818151815260200191508051906020019080838360005b838110156100f55780820151818401526020810190506100da565b50505050905090810190601f1680156101225780820380516001836020036101000a031916815260200191505b5092505050604051809103906000f080158015610143573d6000803e3d6000fd5b5073ffffffffffffffffffffffffffffffffffffffff167f234cf33b32239d80b54161e2396c80cdeaf4d34161300e54d8bc01eb7c0ea55360405160405180910390a250565b6040516112f88061019a83390190560060806040523480156200001157600080fd5b50604051620012f8380380620012f883398101806040528101908080518201929190505050604081511415156200004757600080fd5b80600090805190602001906200005f9291906200006e565b5060018081905550506200011d565b828054600181600116156101000203166002900490600052602060002090601f016020900481019282601f10620000b157805160ff1916838001178555620000e2565b82800160010185558215620000e2579182015b82811115620000e1578251825591602001919060010190620000c4565b5b509050620000f19190620000f5565b5090565b6200011a91905b8082111562000116576000816000905550600101620000fc565b5090565b90565b6111cb806200012d6000396000f30060806040526004361061006d576000357c0100000000000000000000000000000000000000000000000000000000900463ffffffff168063098190d31461007257806387d692071461013f5780639f2ce30f14610188578063d69c3d3014610218578063ec72b0ad14610243575b600080fd5b34801561007e57600080fd5b5061013d600480360381019080803590602001909291908035906020019092919080359060200190929190803590602001908201803590602001908080601f0160208091040260200160405190810160405280939291908181526020018383808284378201915050505050509192919290803590602001908201803590602001908080601f016020809104026020016040519081016040528093929190818152602001838380828437820191505050505050919291929050505061033a565b005b34801561014b57600080fd5b5061016e6004803603810190808035600019169060200190929190505050610853565b604051808215151515815260200191505060405180910390f35b34801561019457600080fd5b5061019d610873565b6040518080602001828103825283818151815260200191508051906020019080838360005b838110156101dd5780820151818401526020810190506101c2565b50505050905090810190601f16801561020a5780820380516001836020036101000a031916815260200191505b509250505060405180910390f35b34801561022457600080fd5b5061022d610911565b6040518082815260200191505060405180910390f35b34801561024f57600080fd5b50610338600480360381019080803590602001909291908035906020019092919080359060200190929190803573ffffffffffffffffffffffffffffffffffffffff16906020019092919080359060200190929190803590602001908201803590602001908080601f0160208091040260200160405190810160405280939291908181526020018383808284378201915050505050509192919290803590602001908201803590602001908080601f0160208091040260200160405190810160405280939291908181526020018383808284378201915050505050509192919290505050610917565b005b84848460405160200180848152602001838152602001828152602001807f6368616e67655075626c69634b65790000000000000000000000000000000000815250600f0193505050506040516020818303038152906040528186868660008060005a92506103b1848661105990919063ffffffff16565b3073ffffffffffffffffffffffffffffffffffffffff1631101515156103d657600080fd5b843a1480156103e55750838310155b15156103f057600080fd5b6000861480610400575085600154145b151561040b57600080fd5b876040518082805190602001908083835b602083101515610441578051825260208201915060208101905060208303925061041c565b6001836020036101000a03801982511681845116808217855250505050505090500191505060405180910390206000191673__ECRecovery____________________________63918a15cf90916040518263ffffffff167c010000000000000000000000000000000000000000000000000000000002815260040180826000191660001916815260200191505060206040518083038186803b1580156104e657600080fd5b505af41580156104fa573d6000803e3d6000fd5b505050506040513d602081101561051057600080fd5b81019080805190602001909291905050509150816000191673__ECRecovery____________________________6319045a259091896040518363ffffffff167c010000000000000000000000000000000000000000000000000000000002815260040180836000191660001916815260200180602001828103825283818151815260200191508051906020019080838360005b838110156105be5780820151818401526020810190506105a3565b50505050905090810190601f1680156105eb5780820380516001836020036101000a031916815260200191505b50935050505060206040518083038186803b15801561060957600080fd5b505af415801561061d573d6000803e3d6000fd5b505050506040513d602081101561063357600080fd5b81019080805190602001909291905050509050600060405180828054600181600116156101000203166002900480156106a35780601f106106815761010080835404028352918201916106a3565b820191906000526020600020905b81548152906001019060200180831161068f575b505091505060405180910390206001900473ffffffffffffffffffffffffffffffffffffffff168173ffffffffffffffffffffffffffffffffffffffff161415156106ed57600080fd5b60008614156107645760026000836000191660001916815260200190815260200160002060009054906101000a900460ff1615151561072b57600080fd5b600160026000846000191660001916815260200190815260200160002060006101000a81548160ff021916908315150217905550610777565b6001600081548092919060010191905055505b60408a5114151561078757600080fd5b896000908051906020019061079d9291906110fa565b507f24d7290cae26258bf6b056cf0630e7b5ef7f56fdec5dd3382581a7986c3a36e98a6040518080602001828103825283818151815260200191508051906020019080838360005b838110156108005780820151818401526020810190506107e5565b50505050905090810190601f16801561082d5780820380516001836020036101000a031916815260200191505b509250505060405180910390a16108448386611091565b50505050505050505050505050565b60026020528060005260406000206000915054906101000a900460ff1681565b60008054600181600116156101000203166002900480601f0160208091040260200160405190810160405280929190818152602001828054600181600116156101000203166002900480156109095780601f106108de57610100808354040283529160200191610909565b820191906000526020600020905b8154815290600101906020018083116108ec57829003601f168201915b505050505081565b60015481565b868686868686604051602001808781526020018681526020018581526020018473ffffffffffffffffffffffffffffffffffffffff1673ffffffffffffffffffffffffffffffffffffffff166c0100000000000000000000000002815260140183815260200182805190602001908083835b6020831015156109ae5780518252602082019150602081019050602083039250610989565b6001836020036101000a038019825116818451168082178552505050505050905001807f73656e645472616e73616374696f6e0000000000000000000000000000000000815250600f0196505050505050506040516020818303038152906040528188888860008060005a9250610a2e848661105990919063ffffffff16565b3073ffffffffffffffffffffffffffffffffffffffff163110151515610a5357600080fd5b843a148015610a625750838310155b1515610a6d57600080fd5b6000861480610a7d575085600154145b1515610a8857600080fd5b876040518082805190602001908083835b602083101515610abe5780518252602082019150602081019050602083039250610a99565b6001836020036101000a03801982511681845116808217855250505050505090500191505060405180910390206000191673__ECRecovery____________________________63918a15cf90916040518263ffffffff167c010000000000000000000000000000000000000000000000000000000002815260040180826000191660001916815260200191505060206040518083038186803b158015610b6357600080fd5b505af4158015610b77573d6000803e3d6000fd5b505050506040513d6020811015610b8d57600080fd5b81019080805190602001909291905050509150816000191673__ECRecovery____________________________6319045a259091896040518363ffffffff167c010000000000000000000000000000000000000000000000000000000002815260040180836000191660001916815260200180602001828103825283818151815260200191508051906020019080838360005b83811015610c3b578082015181840152602081019050610c20565b50505050905090810190601f168015610c685780820380516001836020036101000a031916815260200191505b50935050505060206040518083038186803b158015610c8657600080fd5b505af4158015610c9a573d6000803e3d6000fd5b505050506040513d6020811015610cb057600080fd5b8101908080519060200190929190505050905060006040518082805460018160011615610100020316600290048015610d205780601f10610cfe576101008083540402835291820191610d20565b820191906000526020600020905b815481529060010190602001808311610d0c575b505091505060405180910390206001900473ffffffffffffffffffffffffffffffffffffffff168173ffffffffffffffffffffffffffffffffffffffff16141515610d6a57600080fd5b6000861415610de15760026000836000191660001916815260200190815260200160002060009054906101000a900460ff16151515610da857600080fd5b600160026000846000191660001916815260200190815260200160002060006101000a81548160ff021916908315150217905550610df4565b6001600081548092919060010191905055505b8b73ffffffffffffffffffffffffffffffffffffffff168b6152088f03908c60405180828051906020019080838360005b83811015610e40578082015181840152602081019050610e25565b50505050905090810190601f168015610e6d5780820380516001836020036101000a031916815260200191505b50915050600060405180830381858888f1935050505015610f65577fecab3de0c5f272cfe8e64c31e8ebf2d65491d411a8fc9010fe05aa2534f40a7d8c8c8c604051808473ffffffffffffffffffffffffffffffffffffffff1673ffffffffffffffffffffffffffffffffffffffff16815260200183815260200180602001828103825283818151815260200191508051906020019080838360005b83811015610f24578082015181840152602081019050610f09565b50505050905090810190601f168015610f515780820380516001836020036101000a031916815260200191505b5094505050505060405180910390a161103e565b7f8091ecaaa54ebb82e02d36c2c336528e0fcb9b3430fc1291ac88295032b9c2638c8c8c604051808473ffffffffffffffffffffffffffffffffffffffff1673ffffffffffffffffffffffffffffffffffffffff16815260200183815260200180602001828103825283818151815260200191508051906020019080838360005b83811015611001578082015181840152602081019050610fe6565b50505050905090810190601f16801561102e5780820380516001836020036101000a031916815260200191505b5094505050505060405180910390a15b6110488386611091565b505050505050505050505050505050565b60008083141561106c576000905061108b565b818302905081838281151561107d57fe5b0414151561108757fe5b8090505b92915050565b5a82039150615208820191503373ffffffffffffffffffffffffffffffffffffffff166108fc6110ca838561105990919063ffffffff16565b9081150290604051600060405180830381858888f193505050501580156110f5573d6000803e3d6000fd5b505050565b828054600181600116156101000203166002900490600052602060002090601f016020900481019282601f1061113b57805160ff1916838001178555611169565b82800160010185558215611169579182015b8281111561116857825182559160200191906001019061114d565b5b509050611176919061117a565b5090565b61119c91905b80821115611198576000816000905550600101611180565b5090565b905600a165627a7a723058202c5ac649b6824293df6cea772ca5230c9d378e288eee65330d37d5d6d6d686080029a165627a7a723058201ec0a8e6d6c642c36a5149e7244f398ad63ab3b8acabf044e9644d904fc103d50029",
  "source": "pragma solidity ^0.4.24;\r\n\r\nimport './ProxyWallet.sol';\r\n\r\ncontract WalletFactory {\r\n\t\r\n\tevent WalletCreated(address indexed wallet);\r\n\r\n\tfunction createNewWallet(bytes publicKey) public {\r\n\t\temit WalletCreated(address(new ProxyWallet(publicKey)));\r\n\t}\r\n}",
  "sourcePath": "C:\\Users\\Chance\\Desktop\\taptrust-wallet-contracts\\contracts\\WalletFactory.sol",
  "compiler": {
    "name": "solc",
    "version": "0.4.24+commit.e67f0147.Emscripten.clang"
  },
  "schemaVersion": "2.0.1",
  "updatedAt": "2018-12-07T20:56:50.590Z"
}