{
  "contractName": "WalletFactory",
  "abi": [
    {
      "anonymous": false,
      "inputs": [
        {
          "indexed": true,
          "name": "wallet",
          "type": "address"
        }
      ],
      "name": "WalletCreated",
      "type": "event"
    },
    {
      "constant": false,
      "inputs": [
        {
          "name": "app",
          "type": "address"
        },
        {
          "name": "registry",
          "type": "address"
        }
      ],
      "name": "initialize",
      "outputs": [],
      "payable": false,
      "stateMutability": "nonpayable",
      "type": "function"
    },
    {
      "constant": false,
      "inputs": [
        {
          "name": "publicKey",
          "type": "bytes"
        }
      ],
      "name": "createNewWallet",
      "outputs": [],
      "payable": false,
      "stateMutability": "nonpayable",
      "type": "function"
    }
  ],
  "bytecode": "0x608060405234801561001057600080fd5b50610695806100206000396000f30060806040526004361061004c576000357c0100000000000000000000000000000000000000000000000000000000900463ffffffff168063485cc95514610051578063aeef4823146100b4575b600080fd5b34801561005d57600080fd5b506100b2600480360381019080803573ffffffffffffffffffffffffffffffffffffffff169060200190929190803573ffffffffffffffffffffffffffffffffffffffff16906020019092919050505061011d565b005b3480156100c057600080fd5b5061011b600480360381019080803590602001908201803590602001908080601f0160208091040260200160405190810160405280939291908181526020018383808284378201915050505050509192919290505050610322565b005b60008060019054906101000a900460ff168061013d575061013c610658565b5b8061015457506000809054906101000a900460ff16155b15156101ee576040517f08c379a000000000000000000000000000000000000000000000000000000000815260040180806020018281038252602e8152602001807f436f6e747261637420696e7374616e63652068617320616c726561647920626581526020017f656e20696e697469616c697a656400000000000000000000000000000000000081525060400191505060405180910390fd5b600060019054906101000a900460ff1690506001600060016101000a81548160ff02191690831515021790555060016000806101000a81548160ff02191690831515021790555060008273ffffffffffffffffffffffffffffffffffffffff161415151561025b57600080fd5b60008373ffffffffffffffffffffffffffffffffffffffff161415151561028157600080fd5b82603460006101000a81548173ffffffffffffffffffffffffffffffffffffffff021916908373ffffffffffffffffffffffffffffffffffffffff16021790555081603360006101000a81548173ffffffffffffffffffffffffffffffffffffffff021916908373ffffffffffffffffffffffffffffffffffffffff16021790555080600060016101000a81548160ff021916908315150217905550505050565b6000603460009054906101000a900473ffffffffffffffffffffffffffffffffffffffff1673ffffffffffffffffffffffffffffffffffffffff16632f237e8283603360009054906101000a900473ffffffffffffffffffffffffffffffffffffffff1660405160240180806020018373ffffffffffffffffffffffffffffffffffffffff1673ffffffffffffffffffffffffffffffffffffffff168152602001828103825284818151815260200191508051906020019080838360005b838110156103fb5780820151818401526020810190506103e0565b50505050905090810190601f1680156104285780820380516001836020036101000a031916815260200191505b5093505050506040516020818303038152906040527fcce2df03000000000000000000000000000000000000000000000000000000007bffffffffffffffffffffffffffffffffffffffffffffffffffffffff19166020820180517bffffffffffffffffffffffffffffffffffffffffffffffffffffffff83818316178352505050506040518263ffffffff167c010000000000000000000000000000000000000000000000000000000002815260040180806020018060200180602001848103845260198152602001807f74617074727573742d77616c6c65742d636f6e747261637473000000000000008152506020018481038352600b8152602001807f50726f787957616c6c6574000000000000000000000000000000000000000000815250602001848103825285818151815260200191508051906020019080838360005b8381101561058657808201518184015260208101905061056b565b50505050905090810190601f1680156105b35780820380516001836020036101000a031916815260200191505b50945050505050602060405180830381600087803b1580156105d457600080fd5b505af11580156105e8573d6000803e3d6000fd5b505050506040513d60208110156105fe57600080fd5b810190808051906020019092919050505090508073ffffffffffffffffffffffffffffffffffffffff167f234cf33b32239d80b54161e2396c80cdeaf4d34161300e54d8bc01eb7c0ea55360405160405180910390a25050565b600080303b905060008114915050905600a165627a7a72305820d110dbf1aa21d4bbc0211e89db1f0ddd02da587f708ef8c5d174996a43356fd10029",
  "source": "pragma solidity ^0.4.24;\n\nimport \"zos-lib/contracts/application/App.sol\";\nimport './ProxyWallet.sol';\nimport 'zos-lib/contracts/Initializable.sol';\nimport './trustfund-vouchers/contracts/VouchersRegistry.sol';\n\ncontract WalletFactory is Initializable {\n\t\n\tevent WalletCreated(address indexed wallet);\n\t\n\tVouchersRegistry private _registry;\n\tApp private _app;\n\t\n\tfunction initialize(App app, VouchersRegistry registry) initializer public { \n\t\trequire(uint256(address(registry)) != 0);\n\t\trequire(uint256(address(app)) != 0);\n\t\t_app = app;\n\t\t_registry = registry;\n\t}\n\n\tfunction createNewWallet(bytes publicKey) public {\n\t\tProxyWallet wallet = ProxyWallet(_app.create(\"taptrust-wallet-contracts\", \"ProxyWallet\", abi.encodeWithSignature(\"initialize(bytes,address)\", publicKey, _registry)));\n\t\temit WalletCreated(address(wallet));\n\t}\n}",
  "sourcePath": "/Users/jamesl/Dropbox/TapTrust/code/taptrust-wallet-contracts/contracts/WalletFactory.sol",
  "compiler": {
    "name": "solc",
    "version": "0.4.24+commit.e67f0147.Emscripten.clang"
  },
  "schemaVersion": "3.0.1",
  "updatedAt": "2019-01-24T02:33:21.143Z",
  "devdoc": {
    "methods": {}
  },
  "userdoc": {
    "methods": {}
  }
}